:100000000C945A000C9477000C9477000C947700B1
:100010000C9477000C9477000C9477000C94770084
:100020000C9477000C9477000C9477000C94770074
:100030000C9477000C9477000C9477000C94770064
:100040000C9477000C9477000C9477000C94770054
:100050000C9477000C9477000C9477000C94770044
:100060000C9477000C9477000C9477000C94770034
:100070000C9477000C9477000C9477000C94770024
:100080000C9477000C9477000C9477000C94770014
:100090000C9477000C9477000C9477000C94770004
:1000A0000C9477000C9477000C9477000C947700F4
:1000B0000C94770011241FBECFEFD8E0DEBFCDBF78
:1000C00011E0A0E0B1E0E0E0F3E002C005900D92A5
:1000D000A43BB107D9F721E0A4EBB1E001C01D9228
:1000E000AA3BB207E1F70E94FC000C947E010C943D
:1000F000000021E030E002C0220F331F6A95E2F7D2
:10010000822B0895DF92EF92FF920F931F93CF936C
:10011000DF9300D0CDB7DEB7D82E80E291E00E9409
:1001200036018D2D0E94450182E391E00E94360147
:1001300007E010E013C08D2D90E0002E02C09595D1
:1001400087950A94E2F780FF03C08CE191E002C03A
:100150008EE191E00E9436010150110911235CF7F4
:100160008DE391E00E943601E12C39C06E2D8D2D7A
:100170000E947900F82E80E491E00E94360180E32D
:100180008E0D89831A82CE0101960E9436018DE27E
:1001900091E00E9436018F2D0E94450182E391E09B
:1001A0000E94360107E010E013C08F2D90E0002E72
:1001B00002C0959587950A94E2F780FF03C08CE111
:1001C00091E002C08EE191E00E94360101501109D8
:1001D00011235CF78DE391E00E943601E39487E000
:1001E0008E1520F60F900F90DF91CF911F910F91F8
:1001F000FF90EF90DF9008950E941E0187EA91E63C
:100200000197F1F700C00000789488EF0E94820007
:1002100085E991E00E943601FFCF8091C8008823D4
:10022000E4F78091CE0090E008959091C80095FF8A
:10023000FCCF8093CE0080E090E0089583E380932C
:10024000CC001092CD001092C80088E18093C900C4
:1002500086E08093CA00E4EBF1E08EE091E09383C6
:10026000828380E091E0918380830895CF93DF9330
:10027000EC0105C0219660E070E00E9415018881C4
:100280008111F8CFDF91CF9108951F93CF93DF9322
:10029000CDB7DEB761970FB6F894DEBF0FBECDBF06
:1002A000182F81E1E2EAF1E0DE01119601900D9252
:1002B0008A95E1F7812F82958F70E1E0F0E0EC0FF5
:1002C000FD1FE80FF11D60E070E080810E941501C4
:1002D0001F70E1E0F0E0EC0FFD1FE10FF11D60E0A9
:1002E00070E080810E94150161960FB6F894DEBF20
:1002F0000FBECDBFDF91CF911F910895F894FFCF2E
:10030000000000010000000000000D0100000000DE
:100310000002000000001501000000003100300064
:10032000496E697469616C2056616C75653A20305C
:100330007800202862696E6172793A2000290A00EB
:1003400053657474696E672062697420706F736995
:1003500074696F6E200042697473207365743A206B
:10036000004269747320636C65617265643A2000B1
:10037000496E76616C696420636F6D6D616E642E89
:100380000A0052656769737465722076616C7565E1
:100390003A2030780048656C6C6F205541525421EA
:1003A0000A0030313233343536373839414243442C
:0403B00045460000BE
:00000001FF
