S013000041544D65676133323842502E73726563D3
S11300000C945A000C9477000C9477000C947700AD
S11300100C9477000C9477000C9477000C94770080
S11300200C9477000C9477000C9477000C94770070
S11300300C9477000C9477000C9477000C94770060
S11300400C9477000C9477000C9477000C94770050
S11300500C9477000C9477000C9477000C94770040
S11300600C9477000C9477000C9477000C94770030
S11300700C947F000C9477000C9477000C94770018
S11300800C9477000C9477000C9477000C94770010
S11300900C9477000C9477000C9477000C94770000
S11300A00C9477000C9477000C9477000C947700F0
S11300B00C94770011241FBECFEFD8E0DEBFCDBF74
S11300C013E0A0E0B1E0ECE2F8E002C005900D928C
S11300D0A433B107D9F723E0A4E3B3E001C01D9230
S11300E0A334B207E1F70E9479000C9414040C9431
S11300F000000E94EC010E9404027894FFCF1F923A
S11301000F920FB60F9211242F933F934F935F9347
S11301106F937F938F939F93AF93BF93EF93FF93CB
S11301208091C8008871C9F08BE291E00E940A02B4
S11301308091C80084FF04C088E391E00E940A0211
S11301408091C80083FF04C087E491E00E940A0202
S113015081E792E00E940A0208C06091CE0044E365
S113016053E085E393E00E94C600FF91EF91BF91B5
S1130170AF919F918F917F916F915F914F913F913B
S11301802F910F900FBE0F901F901895EF92FF9232
S11301900F931F93CF93DF938C01C62F7A0185E5CC
S11301A091E00E940A028C2F0E941E0281E792E0D5
S11301B00E940A0285E691E00E940A02F801808109
S11301C0813049F018F0823059F00FC085E791E092
S11301D00E940A020EC086ED91E00E940A0209C044
S11301E085E891E00E940A0204C081EA91E00E943D
S11301F00A02F8018081813009F451C020F0823074
S113020009F469C0CDC0CA3311F540E150E060E0A3
S113021070E088E393E00E946302F701608380EB5F
S113022091E00E940A02F70180810E941E0281E788
S113023092E00E940A02109237031092380385EC70
S113024091E00E940A0281E0F8018083ADC08C2F06
S113025090E00E947903892B91F0E0913703E2301A
S113026070F481E08E0F80933703F0E0E85CFC4F7C
S1130270C083E82FF0E0E85CFC4F108295C085EF66
S113028091E00E940A028C2F0E94190281E792E0F9
S11302900E940A02109237031092380385C0C0539B
S11302A0C83090F4C093360385E192E00E940A02BC
S11302B0809136030E941E0281E792E00E940A02A6
S11302C082E0F801808370C088E392E00E940A0211
S11302D0F801108269C080ED8C0F823008F059C09B
S11302E081E090E00090360302C0880F991F0A94C1
S11302F0E2F7C13329F4F7019081892B808305C08B
S11303008095F70190818923808383E792E00E949E
S11303100A02F70180810E941E0281E792E00E9496
S11303200A028EE892E00E940A02809136030E943B
S11303301E0281E792E00E940A028CEA92E00E9487
S11303400A028C2F0E94190281E792E00E940A029D
S113035088EC92E00E940A02C7E0D0E011C0F701E5
S1130360808190E00C2E02C0959587950A94E2F75F
S113037080FF02C081E301C080E30E94190221973B
S1130380DD236CF781E792E00E940A02F8011082F3
S11303900BC08CEE92E00E940A02F801108204C0A5
S11303A084E193E00E940A02DF91CF911F910F91A3
S11303B0FF90EF9008958091C8008823E4F780911E
S11303C0CE0090E008959091C80095FFFCCF8093F3
S11303D0CE0080E090E0089587E68093CC001092F0
S11303E0CD001092C80088E18093C90086E0809314
S11303F0CA00EBE3F3E08EE091E09383828380E034
S113040091E0918380830895E9ECF0E08081806835
S113041080830895CF93DF93EC0105C0219660E0BB
S113042070E00E94E30188818111F8CFDF91CF91C0
S1130430089560E070E00E94E3010895EF92FF9256
S11304401F93CF93DF93CDB7DEB761970FB6F894C0
S1130450DEBF0FBECDBF182F81E1E3E2F3E0DE0182
S1130460119601900D928A95E1F70F2EFBE3EF2E82
S1130470F3E0FF2EF02DF70162817381812F8295C5
S11304808F70E1E0F0E0EC0FFD1FE80FF11D8081BB
S11304900E94E301F701628173811F70E1E0F0E0E3
S11304A0EC0FFD1FE10FF11D80810E94E3016196B5
S11304B00FB6F894DEBF0FBECDBFDF91CF911F9171
S11304C0FF90EF900895A0E0B0E0E9E6F2E00C942C
S11304D0CF035C016B017A016115710519F0FB0111
S11304E091838083E114F10429F0C7010297839773
S11304F008F0E5C0E5012196F5011081812F90E017
S11305000E948503892B11F05E01F4CF1D3229F47A
S11305102196F501118101E007C01B3221F4E501A8
S11305202296F501118100E0E114F10409F1F0E1F2
S1130530EF16F10429F43FC010E3E114F10421F1B2
S113054028E0E216F10401F154F4E2E0EE16F104BD
S113055021F5812C912CA12CB0E4BB2E3EC0FAE0F5
S1130560EF16F10439F020E1E216F104B1F430C0E1
S1130570103319F1FAE0EF2EF12CACEC8A2E982C02
S1130580A82CACE0BA2E29C078E0E72EF12C812CFF
S1130590912CA12CE0E1BE2E20C060E070E080E050
S11305A090E897010F2C000C440B550B0E94A103FB
S11305B049015A0112C0103359F488818F7D88355E
S11305C009F0BACF19812296026080E1E82EF12C5D
S11305D0812C912CA12C68E0B62E40E060E070E004
S11305E0CB0127010F2C000C66087708FE0150EDA3
S11305F0352E310E29E0231570F42FEB210F2A310B
S113060018F439EC332E06C02FE9210F2A3118F5DE
S113061029EA322E310E232D30E02E153F05DCF46D
S113062047FD16C086169706A806B90670F0A30102
S113063092010E949103630D711D811D911D613012
S11306407105810520E8920710F04FEF01C041E0E9
S113065021961081CBCF202F2170C114D10471F0C9
S1130660442329F02197F601D183C08307C001FFF9
S113067019C02297F601D183C08314C047FF12C06A
S1130680222329F060E070E080E090E804C06FEF7E
S11306907FEF8FEF9FE722E230E030934203209315
S11306A0410309C0222381F090958095709561954E
S11306B07F4F8F4F9F4F462F372F282F12C040E078
S11306C030E020E090E00DC097FFF5CF82E290E0AB
S11306D090934203809341036FEF7FEF8FEF9FE787
S11306E0EACF642F732F822FCDB7DEB7E1E10C94EC
S11306F0EB0391110C948E0380538A5028F0865C8E
S1130700806281568650B0F7089591110C948E033F
S1130710803219F089508550C8F7089599278827A1
S11307200895DB018F939F930E94C303BF91AF9100
S1130730A29F800D911DA39F900DB29F900D112437
S11307400895A1E21A2EAA1BBB1BFD010DC0AA1F0E
S1130750BB1FEE1FFF1FA217B307E407F50720F026
S1130760A21BB30BE40BF50B661F771F881F991FA1
S11307701A9469F760957095809590959B01AC01EA
S1130780BD01CF0108950E940504A59F900DB49F5B
S1130790900DA49F800D911D112408952F923F92D6
S11307A04F925F926F927F928F929F92AF92BF927D
S11307B0CF92DF92EF92FF920F931F93CF93DF9329
S11307C0CDB7DEB7CA1BDB0B0FB6F894DEBF0FBE86
S11307D0CDBF09942A88398848885F846E847D84D3
S11307E08C849B84AA84B984C884DF80EE80FD80D5
S11307F00C811B81AA81B981CE0FD11D0FB6F8944B
S1130800DEBF0FBECDBFED010895A29FB001B39F1F
S1130810C001A39F700D811D1124911DB29F700D05
S10F0820811D1124911D0895F894FFCF50
S113082C00000001000000000000DB0100000000DB
S113083C000200000000E301000000005543535285
S113084C31412076616C75653A2000554152542033
S113085C4572726F723A20004672616D696E672040
S113086C4572726F72200044617461204F76657218
S113087C72756E2000526563656976656420436801
S113088C61723A200043757272656E742053746100
S113089C74653A20004D6F647461675F41647265DE
S11308AC7373650A004D6F647461675F4269745FAA
S11308BC506F736974696F6E5F5661657264690A0F
S11308CC00556E6B6E6F776E2053746174650A00FD
S11308DC52656365697665642061646472657373DB
S11308EC3A203078005472616E736974696F6E6962
S11308FC6E6720746F204D6F647461675F42697416
S113090C5F506F736974696F6E5F495F41647265A0
S113091C7373650A00556E6578706563746564203D
S113092C636861726163746572207265636569766C
S113093C65643A2000456E74657220626974207097
S113094C6F736974696F6E20666F72206164647270
S113095C6573733A20307800496E76616C69642053
S113096C62697420706F736974696F6E2C20706C7B
S113097C6561736520656E74657220612076616CA7
S113098C696420706F736974696F6E2028302D3719
S113099C290A004C696E65313A20526563697665A3
S11309AC6420616464726573733A203078004C6916
S11309BC6E65323A205265636976656420626974A7
S11309CC20706F736974696F6E3A20004C696E65A0
S11309DC333A2052656369657665642062697420D4
S11309EC76616C75653A20004C696E65343A204228
S11309FC6974207061747465726E206174207468FB
S1130A0C6520616464726573733A2000496E766183
S1130A1C6C6964206269742076616C75652C207035
S1130A2C6C6561736520656E7465722030206F721D
S1130A3C20310A00556E6B6E6F776E20737461747F
S1130A4C650A003031323334353637383941424354
S1070A5C44454600C3
S9030000FC
