:100000000C945A000C94F7000C9461010C94770046
:100010000C9477000C9477000C9477000C94770084
:100020000C9477000C9477000C9477000C94770074
:100030000C9477000C9477000C9477000C94770064
:100040000C9477000C9477000C9477000C94770054
:100050000C9477000C9477000C9477000C94770044
:100060000C9477000C9477000C9477000C94770034
:100070000C9454020C9477000C9477000C94770045
:100080000C9477000C9477000C9477000C94770014
:100090000C9477000C9477000C9477000C94770004
:1000A0000C9477000C9477000C9477000C947700F4
:1000B0000C94770011241FBECFEFD8E0DEBFCDBF78
:1000C00013E0A0E0B1E0ECE8F5E102C005900D928C
:1000D000A236B107D9F723E0A2E6B3E001C01D9232
:1000E000A337B207E1F70E949F010C94C40A0C9455
:1000F0000000CF93DF9300D0CDB7DEB79A8389831A
:1001000000000F900F90DF91CF910895CF93DF9370
:1001100000D000D0CDB7DEB789837B836A834C8360
:100120008981823008F05BC08981882F90E0880F38
:10013000991F880F991F80509F4FFC0180819181EA
:100140008957904011F080E04BC08981882F90E062
:10015000009719F00197B9F032C089E690E029E6DE
:1001600030E0F9012081322F3C7F2C81232BFC01D0
:1001700020838DE390E02DE330E0F90120812160C0
:10018000FC0120831CC089E690E029E630E0F901FB
:100190002081422F437F2C81222F30E0220F331FFA
:1001A000220F331F242BFC0120838DE390E02DE3ED
:1001B00030E0F90120812260FC0120830000898168
:1001C000882F90E0880F991F880F991F80509F4FAC
:1001D0002A813B81FC013183208381E001C080E0E2
:1001E0000F900F900F900F90DF91CF9108951F9275
:1001F0000F9200905F000F9211242F933F934F9323
:100200005F936F937F938F939F93AF93BF93EF937E
:10021000FF93CF93DF93CDB7DEB7809162039091C8
:1002200063030196909363038093620380910201BC
:100230009091030101969093030180930201209114
:100240000001309101018091020190910301F901B7
:1002500009950000DF91CF91FF91EF91BF91AF9190
:100260009F918F917F916F915F914F913F912F91CE
:100270000F9000925F000F901F901895CF93DF931F
:1002800000D0CDB7DEB79A83898384E291E00E94E3
:10029000990489819A810E940F0583E491E00E946C
:1002A000990485E290E025E230E0F90130812EE00A
:1002B0002327FC01208300000F900F90DF91CF9146
:1002C00008951F920F9200905F000F9211242F93B8
:1002D0003F934F935F936F937F938F939F93AF93CE
:1002E000BF93EF93FF93CF93DF93CDB7DEB78091AA
:1002F00006019091070101969093070180930601F2
:10030000209104013091050180910601909107012F
:10031000F90109950000DF91CF91FF91EF91BF9115
:10032000AF919F918F917F916F915F914F913F918D
:100330002F910F9000925F000F901F901895CF9310
:10034000DF93CDB7DEB760970FB6F894DEBF0FBE70
:10035000CDBF0E9418040E944E04789442E06EE3E0
:1003600071E080E00E9486008AE290E02AE230E0BC
:10037000F90120812B7FFC01208384E290E024E2BC
:1003800030E0F90120812E60FC01208380E090E0C4
:100390000E945F0489838EEC90E0FC0180818A8357
:1003A00085E290E025E230E0F901308120E2232768
:1003B000FC01208380E090E0AAE7B4E48B839C8377
:1003C000AD83BE8320E030E04AE753E46B817C815B
:1003D0008D819E810E94CB05DC01CB018F839887A4
:1003E000A987BA8720E030E040E85FE36F81788535
:1003F00089859A850E94450588232CF481E090E048
:100400009C878B873FC020E03FEF4FE757E46F8129
:10041000788589859A850E94C60518164CF520E0D6
:1004200030E040E251E46B817C818D819E810E94AD
:10043000CB05DC01CB01BC01CD010E944A05DC01EA
:10044000CB019C878B870FC089E190E09E878D87C9
:100450008D859E850197F1F79E878D878B859C857D
:1004600001979C878B878B859C85892B69F714C0A6
:100470006F81788589859A850E944A05DC01CB01C8
:100480009C878B878B859C85988B8F878F85988998
:100490000197F1F7988B8F8745E653E06A8184E6F0
:1004A00093E00E94C50272CF1F920F9200905F00EE
:1004B0000F9211242F933F934F935F936F937F93EA
:1004C0008F939F93AF93BF93EF93FF93CF93DF935C
:1004D0001F92CDB7DEB788EC90E0FC018081882FB9
:1004E00090E088719927892B71F185E491E00E9451
:1004F000990488EC90E0FC018081882F90E0807165
:100500009927892B21F082E591E00E94990488ECDB
:1005100090E0FC018081882F90E088709927892BDA
:1005200021F081E691E00E9499048FE691E00E941B
:10053000990488EC90E028EC30E0F90120812861F2
:10054000FC0120830CC08EEC90E0FC01808189834B
:1005500045E653E0698184E693E00E94C50200000D
:100560000F90DF91CF91FF91EF91BF91AF919F914C
:100570008F917F916F915F914F913F912F910F904C
:1005800000925F000F901F901895CF93DF9300D0DB
:1005900000D000D0CDB7DEB79B838A836C835E83A7
:1005A0004D8381E791E00E9499048C810E94CA04E6
:1005B00087E891E00E9499048C810E940F0586E9EA
:1005C00091E00E94990488E991E00E9499048A814F
:1005D0009B81FC018081882F90E08130910551F052
:1005E0008230910561F0892B79F488EA91E00E94CC
:1005F00099040FC088EB91E00E9499040AC087ED2E
:1006000091E00E94990405C083EF91E00E94990453
:1006100000008A819B81FC018081882F90E08130DD
:10062000910509F466C08230910509F487C0892BD1
:1006300009F0F0C08C818A3359F540E150E060E068
:1006400070E086E693E00E946006DC01CB01282F73
:100650008D819E81FC01208382E092E00E949904BA
:100660008D819E81FC0180810E94CA0486E991E00F
:100670000E949904109269031092660387E192E048
:100680000E9499048A819B8121E0FC012083C7C0DC
:100690008C81882F90E00E947607892BD1F0809181
:1006A00069038230B0F48091690391E0980F9093D0
:1006B0006903882F90E08A599C4F2C81FC0120838C
:1006C00080916903882F90E08A599C4FFC01108229
:1006D000A6C087E492E00E9499048C810E94BA042B
:1006E00086E991E00E9499041092690310926603D2
:1006F00096C08C818033C8F08C818833B0F48C81B3
:10070000805380936A0387E692E00E949904809167
:100710006A030E94CA0486E991E00E9499048A81D2
:100720009B8122E0FC0120837AC08AE892E00E944B
:1007300099048A819B81FC01108271C08C818A306E
:1007400031F08C818D3019F08C818A3361F485EC25
:1007500092E00E9499048C810E94BA0486E991E09B
:100760000E9499045CC083EE92E00E9499048C81FF
:100770000E94BA0486E991E00E9499048C8180333A
:1007800019F08C818133E1F580916A03282F30E0E4
:1007900081E090E002C0880F991F2A95E2F78983D3
:1007A0008C81813361F48D819E81FC0190818981EE
:1007B000292F282B8D819E81FC0120830DC08D81E6
:1007C0009E81FC018081982F898180958923282F23
:1007D0008D819E81FC01208381E093E00E94990439
:1007E0008D819E81FC0180810E94CA0486E991E08E
:1007F0000E9499048A819B81FC01108200000FC035
:1008000085E193E00E9499048A819B8121E0FC01AB
:10081000208305C08DE393E00E9499040000269692
:100820000FB6F894DEBF0FBECDBFDF91CF91089514
:10083000CF93DF9300D0CDB7DEB787E690E09A8301
:1008400089838CEC90E02981FC0120838DEC90E081
:1008500029813A81232F3327FC01208388EC90E003
:10086000FC01108289EC90E028E1FC0120838AECF5
:1008700090E026E0FC01208388E091E090936E03F5
:1008800080936D0386E191E090936C0380936B03FA
:1008900000000F900F90DF91CF910895CF93DF93D9
:1008A000CDB7DEB789EC90E029EC30E0F90120818A
:1008B0002068FC0120830000DF91CF910895CF9341
:1008C000DF9300D0CDB7DEB79A838983000088EC30
:1008D00090E0FC0180818823D4F78EEC90E0FC014D
:1008E0008081882F90E00F900F90DF91CF91089535
:1008F000CF93DF9300D01F92CDB7DEB789837B8380
:100900006A83000088EC90E0FC018081882F90E0F1
:1009100080729927892BB1F38EEC90E02981FC013C
:10092000208380E090E00F900F900F90DF91CF91A7
:100930000895CF93DF9300D0CDB7DEB79A83898334
:100940000DC089819A819C012F5F3F4F3A83298393
:10095000FC01808160E070E00E94780489819A81C6
:10096000FC018081882369F700000F900F90DF91D0
:10097000CF910895CF93DF931F92CDB7DEB78983D0
:1009800060E070E089810E94780400000F90DF91A0
:10099000CF910895CF93DF93CDB7DEB762970FB6AF
:1009A000F894DEBF0FBECDBF8A8B21E1ECE4F3E00B
:1009B000CE010196DC0101900D922A95E1F740915C
:1009C0006D0350916E038A8982958F70882F90E015
:1009D0009E012F5F3F4F820F931FFC018081BA0160
:1009E0000E94780440916D0350916E038A89882F8C
:1009F00090E08F7099279E012F5F3F4F820F931FCA
:100A0000FC018081BA010E947804000062960FB652
:100A1000F894DEBF0FBECDBFDF91CF910895CF9385
:100A2000DF93CDB7DEB72D970FB6F894DEBF0FBEBC
:100A3000CDBF8D878D85882F90E0292F2F938F93A1
:100A40008FE593E0892F8F938FE593E08F93CE010D
:100A500001969F938F930E948B070F900F900F909A
:100A60000F900F900F90CE0101960E9499048DE592
:100A700093E00E94990400002D960FB6F894DEBF13
:100A80000FBECDBFDF91CF9108950E94790508F484
:100A900081E008950E94A50588F09F5798F0B92F2E
:100AA0009927B751B0F0E1F0660F771F881F991FA3
:100AB0001AF0BA95C9F714C0B13091F00E94BF0581
:100AC000B1E008950C94BF05672F782F8827B85F91
:100AD00039F0B93FCCF3869577956795B395D9F7FB
:100AE0003EF490958095709561957F4F8F4F9F4F05
:100AF0000895990F0008550FAA0BE0E8FEEF1616AF
:100B00001706E807F907C0F012161306E407F50701
:100B100098F0621B730B840B950B39F40A2661F075
:100B2000232B242B252B21F408950A2609F4A14018
:100B3000A6958FEF811D811D089557FD9058440F94
:100B4000551F59F05F3F71F04795880F97FB991F2C
:100B500061F09F3F79F087950895121613061406E9
:100B6000551FF2CF4695F1DF08C016161706180676
:100B7000991FF1CF86957105610508940895E89451
:100B8000BB2766277727CB0197F908950E9479053F
:100B900008F48FEF08950E94DE050C944F060E9422
:100BA000410638F00E94480620F0952311F00C947D
:100BB00038060C943E0611240C94C0050E949D0535
:100BC00070F3959FC1F3950F50E0551F629FF001A0
:100BD000729FBB27F00DB11D639FAA27F00DB11DB9
:100BE000AA1F649F6627B00DA11D661F829F222742
:100BF000B00DA11D621F739FB00DA11D621F839FC9
:100C0000A00D611D221F749F3327A00D611D231F9E
:100C1000849F600D211D822F762F6A2F11249F57EC
:100C200050409AF0F1F088234AF0EE0FFF1FBB1FEF
:100C3000661F771F881F91505040A9F79E3F5105AE
:100C400080F00C9438060C94C0055F3FE4F3983EA6
:100C5000D4F3869577956795B795F795E7959F5F58
:100C6000C1F7FE2B880F911D9695879597F90895EA
:100C700097F99F6780E870E060E008959FEF80EC4F
:100C8000089500240A9416161706180609060895F2
:100C900000240A9412161306140605060895092E58
:100CA0000394000C11F4882352F0BB0F40F4BF2BC7
:100CB00011F460FF04C06F5F7F4F8F4F9F4F089507
:100CC000A0E0B0E0E6E6F6E00C947F0A5C016B0180
:100CD0007A016115710519F0FB0191838083E1149C
:100CE000F10429F0C7010297839708F0E5C0E501F8
:100CF0002196F5011081812F90E00E948207892BB7
:100D000011F05E01F4CF1D3229F42196F501118115
:100D100001E007C01B3221F4E5012296F5011181A3
:100D200000E0E114F10409F1F0E1EF16F10429F417
:100D30003FC010E3E114F10421F128E0E216F104D0
:100D400001F154F4E2E0EE16F10421F5812C912C2E
:100D5000A12CB0E4BB2E3EC0FAE0EF16F10439F04E
:100D600020E1E216F104B1F430C0103319F1FAE0D9
:100D7000EF2EF12CACEC8A2E982CA82CACE0BA2EDD
:100D800029C078E0E72EF12C812C912CA12CE0E1F8
:100D9000BE2E20C060E070E080E090E897010F2C4C
:100DA000000C440B550B0E94510A49015A0112C014
:100DB000103359F488818F7D883509F0BACF1981B5
:100DC0002296026080E1E82EF12C812C912CA12C3E
:100DD00068E0B62E40E060E070E0CB0127010F2C08
:100DE000000C66087708FE0150ED352E310E29E023
:100DF000231570F42FEB210F2A3118F439EC332E20
:100E000006C02FE9210F2A3118F529EA322E310EBA
:100E1000232D30E02E153F05DCF447FD16C0861665
:100E20009706A806B90670F0A30192010E94410A34
:100E3000630D711D811D911D61307105810520E8D3
:100E4000920710F04FEF01C041E021961081CBCF07
:100E5000202F2170C114D10471F0442329F021976F
:100E6000F601D183C08307C001FF19C02297F601A4
:100E7000D183C08314C047FF12C0222329F060E051
:100E800070E080E090E804C06FEF7FEF8FEF9FE7A6
:100E900022E230E0309372032093710309C02223D1
:100EA00081F090958095709561957F4F8F4F9F4F02
:100EB000462F372F282F12C040E030E020E090E08E
:100EC0000DC097FFF5CF82E290E09093720380937C
:100ED00071036FEF7FEF8FEF9FE7EACF642F732FE0
:100EE000822FCDB7DEB7E1E10C949B0A91110C94EF
:100EF0008E0980538A5028F0865C80628156865025
:100F0000B0F7089591110C948E09803219F0895030
:100F10008550C8F70895AEE0B0E0E1E9F7E00C9441
:100F20008C0A0D891E8986E08C831A8309838FEFD2
:100F30009FE79E838D83AE01475E5F4F6F89788DFB
:100F4000CE0101960E94AD07EF81F885E00FF11FF9
:100F500010822E96E4E00C94A80AABE0B0E0E3EB3C
:100F6000F7E00C947E0A6C017B018A01FC01178278
:100F70001682838181FFCCC1CE0101963C01F6012E
:100F80009381F70193FD859193FF81917F018823E0
:100F900009F4BAC1853239F493FD859193FF8191AB
:100FA0007F01853229F4B60190E00E94A709E7CFBE
:100FB000912C212C312CFFE1F315D8F08B3279F0F4
:100FC00038F4803279F08332A1F4232D20611DC0E2
:100FD0008D3261F0803369F4232D216016C0832D9A
:100FE0008260382EE32DE4603E2E2AC0F32DF86097
:100FF0001DC037FC2DC020ED280F2A3040F08E3266
:10100000B9F436FC81C1232D2064322E19C036FE7E
:1010100006C08AE0989E200D1124922E11C0EAE0AD
:101020002E9E200D1124222EF32DF0623F2E08C09B
:101030008C3621F4832D8068382E02C0883641F426
:10104000F70193FD859193FF81917F018111B3CFCA
:10105000982F9F7D9554933028F40C5F1F4F9FE38A
:1010600099830DC0833631F0833771F0833509F0F1
:1010700059C021C0F801808189830E5F1F4F8824E9
:101080008394912C530113C02801F2E04F0E511CA0
:10109000F801A080B18036FE03C0692D70E002C067
:1010A0006FEF7FEFC5010E949C094C018201F32D77
:1010B000FF773F2E16C0280122E0420E511CF80196
:1010C000A080B18036FE03C0692D70E002C06FEFD2
:1010D0007FEFC5010E9491094C01F32DF0683F2E6E
:1010E000820133FC1BC0822D90E088169906B0F473
:1010F000B60180E290E00E94A7092A94F4CFF5019E
:1011000037FC859137FE81915F01B60190E00E9426
:10111000A70921102A9421E0821A910881149104D0
:1011200071F7E8C0843611F0893641F5F80137FED1
:1011300007C060817181828193810C5F1F4F08C05D
:1011400060817181072E000C880B990B0E5F1F4F79
:10115000F32DFF763F2E97FF09C0909580957095EF
:1011600061957F4F8F4F9F4FF0683F2E2AE030E010
:10117000A3010E94E309882E861845C0853731F403
:10118000232D2F7EB22E2AE030E025C0932D997FAB
:10119000B92E8F36C1F018F4883579F0B5C0803794
:1011A00019F0883721F0B0C0E92FE061BE2EB4FEFF
:1011B0000DC0FB2DF460BF2E09C034FE0AC0292FDC
:1011C0002660B22E06C028E030E005C020E130E005
:1011D00002C020E132E0F801B7FE07C060817181F2
:1011E000828193810C5F1F4F06C06081718180E016
:1011F00090E00E5F1F4FA3010E94E309882E86181E
:10120000FB2DFF773F2E36FE0DC0232D2E7FA22E05
:10121000891458F434FE0BC032FC09C0832D8E7E35
:10122000A82E05C0B82CA32C03C0B82C01C0B92C23
:10123000A4FE0FC0FE01E80DF11D8081803321F472
:101240009A2D997EA92E09C0A2FE06C0B394B3942C
:1012500004C08A2D867809F0B394A3FC11C0A0FEC7
:1012600006C0B21488F4280C922C9B180EC0B2143D
:1012700060F4B60180E290E00E94A709B394F7CF32
:10128000B21418F42B1802C0982C212CA4FE10C004
:10129000B60180E390E00E94A709A2FE17C0A1FC5E
:1012A00003C088E790E002C088E590E0B6010CC07A
:1012B0008A2D867859F0A1FE02C08BE201C080E23F
:1012C000A7FC8DE2B60190E00E94A709891438F4CA
:1012D000B60180E390E00E94A7099A94F7CF8A9420
:1012E000F301E80DF11D8081B60190E00E94A7098D
:1012F0008110F5CF222009F442CEB60180E290E0C1
:101300000E94A7092A94F6CFF6018681978102C030
:101310008FEF9FEF2B96E2E10C949A0A992788278A
:101320000895FC010590615070400110D8F7809538
:1013300090958E0F9F1F0895FC01615070400190A1
:101340000110D8F7809590958E0F9F1F08950F93E9
:101350001F93CF93DF93FB01238121FD03C08FEF08
:101360009FEF2CC022FF16C0468157812481358112
:101370004217530744F4A081B1819D012F5F3F4F75
:10138000318320838C93268137812F5F3F4F3783B2
:10139000268314C08B01EC01FB010084F185E02D54
:1013A0000995892BE1F6D80116968D919C91179796
:1013B000019617969C938E931697CE01DF91CF914D
:1013C0001F910F910895FA01AA27283051F1203179
:1013D00081F1E8946F936E7F6E5F7F4F8F4F9F4FC9
:1013E000AF4FB1E03ED0B4E03CD0670F781F891F0B
:1013F0009A1FA11D680F791F8A1F911DA11D6A0FD9
:10140000711D811D911DA11D20D009F468943F918B
:101410002AE0269F11243019305D3193DEF6CF018A
:101420000895462F4770405D4193B3E00FD0C9F750
:10143000F6CF462F4F70405D4A3318F0495D31FDBD
:101440004052419302D0A9F7EACFB4E0A695979510
:10145000879577956795BA95C9F7009761057105E6
:1014600008959B01AC010A2E069457954795379530
:101470002795BA95C9F7620F731F841F951FA01D8A
:101480000895DB018F939F930E94730ABF91AF91E0
:10149000A29F800D911DA39F900DB29F900D1124CE
:1014A0000895A1E21A2EAA1BBB1BFD010DC0AA1FA5
:1014B000BB1FEE1FFF1FA217B307E407F50720F0BD
:1014C000A21BB30BE40BF50B661F771F881F991F38
:1014D0001A9469F760957095809590959B01AC0181
:1014E000BD01CF0108950E94B50AA59F900DB49F3C
:1014F000900DA49F800D911D112408952F923F926D
:101500004F925F926F927F928F929F92AF92BF9213
:10151000CF92DF92EF92FF920F931F93CF93DF93BF
:10152000CDB7DEB7CA1BDB0B0FB6F894DEBF0FBE1C
:10153000CDBF09942A88398848885F846E847D8469
:101540008C849B84AA84B984C884DF80EE80FD806B
:101550000C811B81AA81B981CE0FD11D0FB6F894E1
:10156000DEBF0FBECDBFED010895A29FB001B39FB6
:10157000C001A39F700D811D1124911DB29F700D9C
:0C158000811D1124911D0895F894FFCFE7
:10158C00790000007900000000000002000000005B
:10159C0078040000000000000001000000000000C2
:1015AC005F04000045787465726E616C20696E741E
:1015BC0065727275707420747269676765726564A0
:1015CC00210A000A0055415254204572726F723A3A
:1015DC0020004672616D696E67204572726F7220D1
:1015EC000044617461204F76657272756E20000A3A
:1015FC0000526563656976656420436861722028D2
:10160C00486578293A2000204153434949205661C6
:10161C006C75653A20000A0043757272656E742011
:10162C0053746174653A20004D6F647461675F4157
:10163C006472657373650A004D6F647461675F4211
:10164C0069745F506F736974696F6E5F495F416451
:10165C0072657373650A004D6F647461675F4269EC
:10166C00745F506F736974696F6E5F5661657264F5
:10167C00690A00556E6B6E6F776E205374617465DA
:10168C000A005265636569766564206164647265FD
:10169C0073733A203078005472616E736974696F99
:1016AC006E696E6720746F204D6F647461675F4262
:1016BC0069745F506F736974696F6E5F495F4164E1
:1016CC0072657373650A00556E6578706563746531
:1016DC00642063686172616374657220726563650E
:1016EC00697665643A2000456E746572206269748F
:1016FC0020706F736974696F6E20666F72206164FD
:10170C0064726573733A20307800496E76616C6947
:10171C00642062697420706F736974696F6E2C2019
:10172C00706C6561736520656E74657220612076DE
:10173C00616C696420706F736974696F6E202830F6
:10174C002D37290A0049676E6F72696E6720756EB6
:10175C0077616E746564206368617261637465722D
:10176C003A2000526563656976656420436861724E
:10177C0020666F72204269742056616C75653A2040
:10178C000055706461746564206164647265737380
:10179C003A20307800496E76616C69642062697415
:1017AC002076616C75652C20706C656173652065A5
:1017BC006E7465722030206F7220310A00556E6B8A
:1017CC006E6F776E2073746174650A00303132333A
:1017DC00343536373839414243444546000A0025F2
:0217EC00640097
:00000001FF
