:100000000C945A000C942A010C9477000C947700FD
:100010000C9477000C9477000C9477000C94770084
:100020000C9477000C9477000C9477000C94770074
:100030000C9477000C94B7000C9477000C94770024
:100040000C9477000C9477000C9477000C94770054
:100050000C9477000C9477000C9477000C94770044
:100060000C9477000C9477000C9477000C94770034
:100070000C9477000C9477000C9477000C94770024
:100080000C9477000C9477000C9477000C94770014
:100090000C9477000C9477000C9477000C94770004
:1000A0000C9477000C9477000C9477000C947700F4
:1000B0000C94770011241FBECFEFD8E0DEBFCDBF78
:1000C00011E0A0E0B1E0EEE6FBE002C005900D9289
:1000D000A439B107D9F721E0A4E9B1E001C01D922C
:1000E000A53AB207E1F70E94BB010C94B5050C9448
:1000F0000000CF93DF9300D0CDB7DEB79A8389831A
:100100008CE191E00E94650289810E9486028BE366
:1001100091E00E94650284E890E0FC018081918179
:100120000E94860200000F900F90DF91CF910895FA
:10013000CF93DF93CDB7DEB781E890E021E830E0E0
:10014000F90120812360FC01208384E890E0FC0118
:10015000118210828FE690E02FE630E0F9012081D5
:100160002160FC0120830000DF91CF9108951F9250
:100170000F9200905F000F9211242F933F934F93A3
:100180005F936F937F938F939F93AF93BF93EF93FF
:10019000FF93CF93DF93CDB7DEB780919501909118
:1001A0009601019690939601809395014091950157
:1001B000509196019A01ADECBCEC0E94BC02969560
:1001C00087959695879596958795880F991F9C0199
:1001D000220F331F220F331F820F931F9A01281BF8
:1001E000390BC901892B71F48DE391E00E946502FE
:1001F00080919501909196010E9486028BE391E097
:100200000E9465028091970190919801A0919901B7
:10021000B0919A010196A11DB11D80939701909311
:100220009801A0939901B0939A010000DF91CF91BA
:10023000FF91EF91BF91AF919F918F917F916F91BE
:100240005F914F913F912F910F9000925F000F901F
:100250001F9018951F920F9200905F000F9211242B
:100260002F933F934F935F936F937F938F939F93BE
:10027000AF93BF93EF93FF93CF93DF9300D0CDB7AE
:10028000DEB78EE491E00E94650280919701909123
:100290009801A0919901B0919A019A8389838091E4
:1002A0009B0190919C019C0189819A81821B930BF7
:1002B000039748F081E08093940189819A8190931B
:1002C0009C0180939B018CE390E02CE330E0F901EA
:1002D00020812160FC01208300000F900F90DF91AE
:1002E000CF91FF91EF91BF91AF919F918F917F91AE
:1002F0006F915F914F913F912F910F9000925F000E
:100300000F901F901895CF93DF93CDB7DEB78091F4
:100310009401882361F18091970190919801A091B7
:100320009901B0919A018B349C44A105B105F8F074
:1003300087E691E00E9465021092940180919D01F0
:1003400090919E01019690939E0180939D018091D2
:100350009D0190919E010E94790085E290E025E246
:1003600030E0F901308120E22327FC0120830000E6
:10037000DF91CF910895CF93DF93CDB7DEB70E9481
:10038000F5010E94980084E290E024E230E0F90157
:1003900020812062FC01208385E290E025E230E0AC
:1003A000F90120812062FC0120838AE290E02AE2A8
:1003B00030E0F90120812B7FFC0120838BE290E06B
:1003C0002BE230E0F90120812460FC01208389E6E2
:1003D00090E023E0FC0120838DE390E021E0FC012C
:1003E000208378940E948301FDCFCF93DF9300D0C8
:1003F000CDB7DEB787E690E09A8389838CEC90E0F6
:100400002981FC0120838DEC90E029813A81232F02
:100410003327FC01208388EC90E0FC01108289ECFA
:1004200090E028E1FC0120838AEC90E026E0FC01CA
:10043000208380E091E09093A2018093A1018EE05F
:1004400091E09093A00180939F0100000F900F9086
:10045000DF91CF910895CF93DF9300D0CDB7DEB772
:100460009A838983000088EC90E0FC0180818823D6
:10047000D4F78EEC90E0FC018081882F90E00F9003
:100480000F90DF91CF910895CF93DF9300D01F920B
:10049000CDB7DEB789837B836A83000088EC90E068
:1004A000FC018081882F90E080729927892BB1F31D
:1004B0008EEC90E02981FC01208380E090E00F9099
:1004C0000F900F90DF91CF910895CF93DF9300D0DD
:1004D000CDB7DEB79A8389830DC089819A819C014B
:1004E0002F5F3F4F3A832983FC01808160E070E0F9
:1004F0000E94440289819A81FC018081882369F7E6
:1005000000000F900F90DF91CF910895CF93DF936C
:10051000CDB7DEB72D970FB6F894DEBF0FBECDBFB7
:100520008D878D85882F90E0292F2F938F9381E9D8
:1005300091E0892F8F9381E991E08F93CE0101960D
:100540009F938F930E94CB020F900F900F900F906C
:100550000F900F90CE0101960E9465028FE891E006
:100560000E94650200002D960FB6F894DEBF0FBE04
:10057000CDBFDF91CF910895A29FB001B39FC0017D
:10058000A39F700D811D1124911DB29F700D811DBF
:100590001124911D0895AEE0B0E0E1EDF2E00C947D
:1005A0008C050D891E8986E08C831A8309838FEF61
:1005B0009FE79E838D83AE01475E5F4F6F89788D85
:1005C000CE0101960E94ED02EF81F885E00FF11F48
:1005D00010822E96E4E00C94A805ABE0B0E0E3EFC7
:1005E000F2E00C947E056C017B018A01FC0117820C
:1005F0001682838181FFCCC1CE0101963C01F601B8
:100600009381F70193FD859193FF81917F01882369
:1006100009F4BAC1853239F493FD859193FF819134
:100620007F01853229F4B60190E00E94E404E7CF0F
:10063000912C212C312CFFE1F315D8F08B3279F07D
:1006400038F4803279F08332A1F4232D20611DC06B
:100650008D3261F0803369F4232D216016C0832D23
:100660008260382EE32DE4603E2E2AC0F32DF86020
:100670001DC037FC2DC020ED280F2A3040F08E32EF
:10068000B9F436FC81C1232D2064322E19C036FE08
:1006900006C08AE0989E200D1124922E11C0EAE037
:1006A0002E9E200D1124222EF32DF0623F2E08C025
:1006B0008C3621F4832D8068382E02C0883641F4B0
:1006C000F70193FD859193FF81917F018111B3CF54
:1006D000982F9F7D9554933028F40C5F1F4F9FE314
:1006E00099830DC0833631F0833771F0833509F07B
:1006F00059C021C0F801808189830E5F1F4F882473
:100700008394912C530113C02801F2E04F0E511C29
:10071000F801A080B18036FE03C0692D70E002C0F0
:100720006FEF7FEFC5010E94D9044C018201F32DC8
:10073000FF773F2E16C0280122E0420E511CF8011F
:10074000A080B18036FE03C0692D70E002C06FEF5B
:100750007FEFC5010E94CE044C01F32DF0683F2EBF
:10076000820133FC1BC0822D90E088169906B0F4FC
:10077000B60180E290E00E94E4042A94F4CFF501EF
:1007800037FC859137FE81915F01B60190E00E94B0
:10079000E40421102A9421E0821A91088114910422
:1007A00071F7E8C0843611F0893641F5F80137FE5B
:1007B00007C060817181828193810C5F1F4F08C0E7
:1007C00060817181072E000C880B990B0E5F1F4F03
:1007D000F32DFF763F2E97FF09C090958095709579
:1007E00061957F4F8F4F9F4FF0683F2E2AE030E09A
:1007F000A3010E942005882E861845C0853731F454
:10080000232D2F7EB22E2AE030E025C0932D997F34
:10081000B92E8F36C1F018F4883579F0B5C080371D
:1008200019F0883721F0B0C0E92FE061BE2EB4FE88
:100830000DC0FB2DF460BF2E09C034FE0AC0292F65
:100840002660B22E06C028E030E005C020E130E08E
:1008500002C020E132E0F801B7FE07C0608171817B
:10086000828193810C5F1F4F06C06081718180E09F
:1008700090E00E5F1F4FA3010E942005882E86186E
:10088000FB2DFF773F2E36FE0DC0232D2E7FA22E8F
:10089000891458F434FE0BC032FC09C0832D8E7EBF
:1008A000A82E05C0B82CA32C03C0B82C01C0B92CAD
:1008B000A4FE0FC0FE01E80DF11D8081803321F4FC
:1008C0009A2D997EA92E09C0A2FE06C0B394B394B6
:1008D00004C08A2D867809F0B394A3FC11C0A0FE51
:1008E00006C0B21488F4280C922C9B180EC0B214C7
:1008F00060F4B60180E290E00E94E404B394F7CF84
:10090000B21418F42B1802C0982C212CA4FE10C08D
:10091000B60180E390E00E94E404A2FE17C0A1FCAF
:1009200003C088E790E002C088E590E0B6010CC003
:100930008A2D867859F0A1FE02C08BE201C080E2C8
:10094000A7FC8DE2B60190E00E94E404891438F41B
:10095000B60180E390E00E94E4049A94F7CF8A9471
:10096000F301E80DF11D8081B60190E00E94E404DE
:100970008110F5CF222009F442CEB60180E290E04A
:100980000E94E4042A94F6CFF6018681978102C082
:100990008FEF9FEF2B96E2E10C949A05FC010590F6
:1009A000615070400110D8F7809590958E0F9F1F71
:1009B0000895FC016150704001900110D8F78095B6
:1009C00090958E0F9F1F08950F931F93CF93DF93E2
:1009D000FB01238121FD03C08FEF9FEF2CC022FF7D
:1009E00016C046815781248135814217530744F44C
:1009F000A081B1819D012F5F3F4F318320838C9374
:100A0000268137812F5F3F4F3783268314C08B01A8
:100A1000EC01FB010084F185E02D0995892BE1F6BD
:100A2000D80116968D919C911797019617969C93D5
:100A30008E931697CE01DF91CF911F910F9108955C
:100A4000FA01AA27283051F1203181F1E8946F93FF
:100A50006E7F6E5F7F4F8F4F9F4FAF4FB1E03ED0A5
:100A6000B4E03CD0670F781F891F9A1FA11D680F43
:100A7000791F8A1F911DA11D6A0F711D811D911D76
:100A8000A11D20D009F468943F912AE0269F1124EB
:100A90003019305D3193DEF6CF010895462F47704F
:100AA000405D4193B3E00FD0C9F7F6CF462F4F70AA
:100AB000405D4A3318F0495D31FD4052419302D008
:100AC000A9F7EACFB4E0A6959795879577956795AE
:100AD000BA95C9F700976105710508959B01AC01AE
:100AE0000A2E06945795479537952795BA95C9F7D5
:100AF000620F731F841F951FA01D08952F923F92B0
:100B00004F925F926F927F928F929F92AF92BF921D
:100B1000CF92DF92EF92FF920F931F93CF93DF93C9
:100B2000CDB7DEB7CA1BDB0B0FB6F894DEBF0FBE26
:100B3000CDBF09942A88398848885F846E847D8473
:100B40008C849B84AA84B984C884DF80EE80FD8075
:100B50000C811B81AA81B981CE0FD11D0FB6F894EB
:0E0B6000DEBF0FBECDBFED010895F894FFCFAC
:100B6E00000000020000000044020000000000002F
:100B7E0000010000000000002B02000045787465A3
:100B8E00726E616C20696E74657272757074207409
:100B9E007269676765726564210A000A004F76659F
:100BAE0072666C6F7720636F756E743A2000494ED3
:100BBE00543020696E746572727570742074726927
:100BCE006767657265640050726F63657373696EF3
:100BDE006720696E74657272757074210A00303107
:100BEE003233343536373839414243444546000AAC
:040BFE00002564006A
:00000001FF
