S01C00004269747669735F4B6F6E7472615F4C6F6769736B2E7372656301
S11300000C945A000C9464000C9464000C946400E6
S11300100C9464000C9464000C9464000C946400CC
S11300200C9464000C9464000C9464000C946400BC
S11300300C9464000C9464000C9464000C946400AC
S11300400C9464000C9464000C9464000C9464009C
S11300500C9464000C9464000C9464000C9464008C
S11300600C9464000C9464000C9464000C9464007C
S11300700C9464000C9464000C9464000C9464006C
S11300800C9464000C9464000C9464000C9464005C
S11300900C9464000C9464000C9464000C9464004C
S11300A00C9464000C9464000C9464000C9464003C
S11300B00C94640011241FBECFEFD8E0DEBFCDBF87
S11300C00E947A000C947D010C940000CF93DF937E
S11300D000D0CDB7DEB789836A838981282F30E0C9
S11300E08A81882F90E0820F931F0F900F90DF91E9
S11300F0CF910895CF93DF93CDB7DEB72C970FB68A
S1130100F894DEBF0FBECDBF8EE3898381E08A837E
S11301108981882319F48A81882319F081E090E089
S113012002C080E090E08B838981882319F48A815E
S1130130882319F081E090E002C080E090E08C8395
S11301408981882319F48A81882319F081E090E059
S113015002C080E090E08B8399818A81892B8D8312
S113016099818A81892B8E838981882331F08A81C0
S1130170882319F081E090E002C080E090E08F8352
S11301808981882331F08A81882319F081E090E005
S113019002C080E090E0888799818A8189238987D9
S11301A099818A8189238A876BEB8AEA0E94660097
S11301B09C878B8784E290E02FEFFC01208385E20B
S11301C090E021E0FC01208385E290E024E1FC0141
S11301D0208385E290E025E230E0F901208121606E
S11301E0FC01208385E290E025E230E0F9012081E2
S11301F02160FC01208385E290E025E230E0F901F2
S11302002081206CFC01208385E290E025E230E02F
S1130210F90120812B7FFC01208385E290E025E217
S113022030E0F90120812F73FC01208391E0898162
S1130230882309F490E081E02A81222309F480E0F4
S1130240892B8D838981882319F48A81882319F065
S113025081E090E002C080E090E08D8381E09A81AB
S1130260992309F480E0982F8981892B8D8391E06B
S11302708981882309F490E081E02A81222309F40A
S113028080E0892B982F8981892B8D83898188230C
S113029019F48A81882319F081E090E002C080E09B
S11302A090E0982F8981892B8D8381E0998199230E
S11302B009F480E0282F81E09A81992309F480E0F1
S11302C0982F8981892B822B8D838981882371F4CE
S11302D081E09A81992309F480E0282F30E0898114
S11302E0882F90E0822B932B892B19F081E090E0EA
S11102F002C080E090E08D83FFCFF894FFCF32
S9030000FC
