:1000000059C0000072C0000070C000006EC0000047
:100010006CC000006AC0000068C0000066C000003C
:1000200064C0000062C0000060C000005EC000004C
:100030005CC000005AC0000058C0000056C000005C
:10004000DCC0000052C0000050C000004EC00000E4
:100050004CC000004AC0000048C0000046C000007C
:1000600044C0000042C0000040C000003EC000008C
:100070003CC000003AC0000038C0000036C000009C
:1000800034C0000032C0000030C000002EC00000AC
:100090002CC000002AC0000028C0000026C00000BC
:1000A00024C0000022C0000020C000001EC00000CC
:1000B0001CC0000011241FBECFEFD8E0DEBFCDBFB3
:1000C00011E0A0E0B1E0E2E8F2E002C005900D929C
:1000D000A431B107D9F721E0A4E1B1E001C01D923C
:1000E000A831B207E1F702D0CAC08ACFCF93DF931D
:1000F000CDB7DEB784E290E02FEFFC01208385E2EC
:1001000090E0FC01108283EA9EE13AD065D07894B9
:10011000FFCFCF93DF9300D01F92CDB7DEB79B8385
:100120008A8319828981882F90E0880F991F880F10
:10013000991F80509F4FFC01208131818A819B81D2
:100140002817390769F48981882F90E0880F991F53
:10015000880F991F8E5F9E4FFC01808191810AC09C
:1001600089818F5F898389818530E0F280910201E6
:10017000909103010F900F900F90DF91CF91089510
:10018000CF93DF9300D0CDB7DEB79A83898386E41F
:1001900090E0FC01108284E490E0FC01108285E391
:1001A00090E0FC01108288E090E0B3DF482F85E406
:1001B00090E025E430E0F9012081242BFC0120832C
:1001C00089819A81909315018093140100000F900A
:1001D0000F90DF91CF910895CF93DF93CDB7DEB726
:1001E0008EE690E02EE630E0F90120812160FC01EE
:1001F00020830000DF91CF9108951F920F9200900D
:100200005F000F9211242F933F938F939F93EF934F
:10021000FF93CF93DF93CDB7DEB780911601909116
:1002200017010196909317018093160120911601F2
:100230003091170180911401909115012817390709
:1002400070F085E290E025E230E0F901308124E0B1
:100250002327FC0120831092170110921601789435
:100260000000DF91CF91FF91EF919F918F913F918E
:100270002F910F9000925F000F901F901895F894A7
:02028000FFCFAE
:100282000100010008000200400003000001040018
:04029200000405005F
:00000001FF
