:1000000059C00000F1C000002DC100006EC000000A
:100010006CC000006AC0000068C0000066C000003C
:1000200064C0000062C0000060C000005EC000004C
:100030005CC000005AC0000058C0000056C000005C
:1000400054C0000052C0000050C000004EC000006C
:100050004CC000004AC0000048C0000046C000007C
:1000600044C0000042C0000040C000003EC000008C
:1000700027C200003AC0000038C0000036C00000AF
:1000800034C0000032C0000030C000002EC00000AC
:100090002CC000002AC0000028C0000026C00000BC
:1000A00024C0000022C0000020C000001EC00000CC
:1000B0001CC0000011241FBECFEFD8E0DEBFCDBFB3
:1000C00011E0A0E0B1E0E8E5FBE002C005900D9290
:1000D000A039B107D9F721E0A0E9B1E001C01D9234
:1000E000AB39B207E1F71BD135C58ACFCF93DF9388
:1000F00000D0CDB7DEB79A83898300000F900F90B0
:10010000DF91CF910895CF93DF9300D000D0CDB78A
:10011000DEB789837B836A834C838981823008F0D0
:100120005BC08981882F90E0880F991F880F991FE5
:1001300080509F4FFC01808191818657904011F043
:1001400080E04BC08981882F90E0009719F00197DB
:10015000B9F032C089E690E029E630E0F90120816B
:10016000322F3C7F2C81232BFC0120838DE390E0F8
:100170002DE330E0F90120812160FC0120831CC0C7
:1001800089E690E029E630E0F9012081422F437FA3
:100190002C81222F30E0220F331F220F331F242BFC
:1001A000FC0120838DE390E02DE330E0F901208114
:1001B0002260FC01208300008981882F90E0880F55
:1001C000991F880F991F80509F4F2A813B81FC0106
:1001D0003183208381E001C080E00F900F900F9069
:1001E0000F90DF91CF9108951F920F9200905F00C2
:1001F0000F9211242F933F934F935F936F937F93AD
:100200008F939F93AF93BF93EF93FF93CF93DF931E
:10021000CDB7DEB7809102019091030101969093D2
:10022000030180930201209100013091010180912E
:10023000020190910301F90109950000DF91CF912E
:10024000FF91EF91BF91AF919F918F917F916F91AE
:100250005F914F913F912F910F9000925F000F900F
:100260001F9018951F920F9200905F000F9211241B
:100270002F933F934F935F936F937F938F939F93AE
:10028000AF93BF93EF93FF93CF93DF93CDB7DEB7D9
:100290008091060190910701019690930701809348
:1002A0000601209104013091050180910601909191
:1002B0000701F90109950000DF91CF91FF91EF91BE
:1002C000BF91AF919F918F917F916F915F914F916E
:1002D0003F912F910F9000925F000F901F90189503
:1002E000CF93DF9300D0CDB7DEB79A838983809117
:1002F00090019091910101969093910180939001CA
:1003000089819A81909393018093920181E08093F7
:10031000940100000F900F90DF91CF910895CF933B
:10032000DF9300D000D000D0CDB7DEB742E060E769
:1003300071E080E0E8DE3CD0B2D0789484E291E0D5
:1003400001D1809194018823E1F31092940183E418
:1003500091E0F8D082E691E0892F8F9382E691E0D8
:100360008F93D8D00F900F90809190019091910130
:10037000292F2F938F938BE891E0892F8F938BE810
:1003800091E08F93CE0101969F938F930BD10F90A5
:100390000F900F900F900F900F90CE0101969F93AA
:1003A0008F93B8D00F900F908AE090E0C6D0C9CF5D
:1003B000CF93DF93CDB7DEB78CEC90E027E6FC015E
:1003C00020838DEC90E0FC01108288EC90E0FC0131
:1003D000108289EC90E028E1FC0120838AEC90E017
:1003E00026E0FC01208305D012D00000DF91CF91E0
:1003F0000895CF93DF93CDB7DEB788E091E0909377
:100400009801809397010000DF91CF910895CF93D9
:10041000DF93CDB7DEB786E191E0909396018093AC
:1004200095010000DF91CF910895CF93DF9300D025
:10043000CDB7DEB79A838983000088EC90E0FC0199
:1004400080818823D4F78EEC90E0FC018081882F96
:1004500090E00F900F90DF91CF910895CF93DF93AD
:1004600000D01F92CDB7DEB789837B836A830000FB
:1004700088EC90E0FC018081882F90E080729927C1
:10048000892BB1F38EEC90E02981FC01208380E080
:1004900090E00F900F900F90DF91CF910895CF9340
:1004A000DF93CDB7DEB789EC90E029EC30E0F901BD
:1004B00020812068FC0120830000DF91CF91089506
:1004C0001F920F9200905F000F9211242F938F9331
:1004D0009F93EF93FF93CF93DF931F92CDB7DEB738
:1004E0008EEC90E0FC01808189838EEC90E0298184
:1004F000FC012083789400000F90DF91CF91FF9151
:10050000EF919F918F912F910F9000925F000F902C
:100510001F901895A0E0B0E0EFE8F2E0F4C2AE0161
:100520004B5F5F4FFA0161917191AF01809197012B
:100530009091980156D0E2E002C3609197017091CA
:10054000980137C20F931F93CF93DF93E0919701E8
:10055000F0919801238121FF1BC08C01D0E0C0E005
:10056000F80181918F016091970170919801DB01F1
:100570001896ED91FC911997882331F00995892BF4
:1005800079F3DFEFCFEFECCF8AE00995892B19F0F3
:100590008FEF9FEF02C08D2F9C2FDF91CF911F9186
:1005A0000F910895AEE0B0E0E7EDF2E0AAC20D8948
:1005B0001E8986E08C831A8309838FEF9FE79E83D1
:1005C0008D83AE01475E5F4F6F89788DCE010196B6
:1005D00008D0EF81F885E00FF11F10822E96E4E03D
:1005E000ACC2ABE0B0E0E6EFF2E07DC26C017B01B3
:1005F0008A01FC0117821682838181FFBFC1CE016F
:1006000001963C01F6019381F70193FD859193FFDB
:1006100081917F01882309F4ADC1853239F493FDBE
:10062000859193FF81917F01853221F4B60190E09D
:10063000C0D1E8CF912C212C312CFFE1F315D8F05B
:100640008B3279F038F4803279F08332A1F4232DA3
:1006500020611DC08D3261F0803369F4232D21604B
:1006600016C0832D8260382EE32DE4603E2E2AC012
:10067000F32DF8601DC037FC2DC020ED280F2A3067
:1006800040F08E32B9F436FC75C1232D2064322E31
:1006900019C036FE06C08AE0989E200D1124922EC5
:1006A00011C0EAE02E9E200D1124222EF32DF062BF
:1006B0003F2E08C08C3621F4832D8068382E02C06E
:1006C000883641F4F70193FD859193FF81917F0175
:1006D0008111B3CF982F9F7D9554933028F40C5FF0
:1006E0001F4F9FE399830DC0833631F0833771F03C
:1006F000833509F055C020C0F801808189830E5FE1
:100700001F4F88248394912C530112C02801F2E0DA
:100710004F0E511CF801A080B18036FE03C0692D38
:1007200070E002C06FEF7FEFC50138D14C0182014C
:10073000F32DFF773F2E15C0280122E0420E511CF9
:10074000F801A080B18036FE03C0692D70E002C0C0
:100750006FEF7FEFC50117D14C01F32DF0683F2EED
:10076000820133FC19C0822D90E088169906A0F40E
:10077000B60180E290E01DD12A94F5CFF50137FC57
:10078000859137FE81915F01B60190E012D1211071
:100790002A9421E0821A91088114910479F7E1C02A
:1007A000843611F0893639F5F80137FE07C06081CB
:1007B0007181828193810C5F1F4F08C060817181BC
:1007C000072E000C880B990B0E5F1F4FF32DFF7641
:1007D0003F2E97FF09C090958095709561957F4F4A
:1007E0008F4F9F4FF0683F2E2AE030E0A3011DD1CC
:1007F000882E861844C0853731F4232D2F7EB22EE3
:100800002AE030E025C0932D997FB92E8F36C1F0B4
:1008100018F4883579F0AEC0803719F0883721F0A8
:10082000A9C0E92FE061BE2EB4FE0DC0FB2DF4601F
:10083000BF2E09C034FE0AC0292F2660B22E06C082
:1008400028E030E005C020E130E002C020E132E0E5
:10085000F801B7FE07C060817181828193810C5FCE
:100860001F4F06C06081718180E090E00E5F1F4FD6
:10087000A301DBD0882E8618FB2DFF773F2E36FE96
:100880000DC0232D2E7FA22E891458F434FE0BC0E8
:1008900032FC09C0832D8E7EA82E05C0B82CA32C57
:1008A00003C0B82C01C0B92CA4FE0FC0FE01E80D96
:1008B000F11D8081803321F49A2D997EA92E09C0E3
:1008C000A2FE06C0B394B39404C08A2D867809F0C2
:1008D000B394A3FC10C0A0FE06C0B21480F4280C90
:1008E000922C9B180DC0B21458F4B60180E290E02F
:1008F00060D0B394F8CFB21418F42B1802C0982C1F
:10090000212CA4FE0FC0B60180E390E052D0A2FEDD
:1009100016C0A1FC03C088E790E002C088E590E023
:10092000B6010CC08A2D867851F0A1FE02C08BE280
:1009300001C080E2A7FC8DE2B60190E03AD08914B4
:1009400030F4B60180E390E034D09A94F8CF8A94E2
:10095000F301E80DF11D8081B60190E02AD08110ED
:10096000F6CF222009F44ECEB60180E290E021D0ED
:100970002A94F7CFF6018681978102C08FEF9FEF0F
:100980002B96E2E1CCC0FC01059061507040011053
:10099000D8F7809590958E0F9F1F0895FC016150A8
:1009A000704001900110D8F7809590958E0F9F1F91
:1009B00008950F931F93CF93DF93FB01238121FDB4
:1009C00003C08FEF9FEF2CC022FF16C046815781D6
:1009D000248135814217530744F4A081B1819D01E0
:1009E0002F5F3F4F318320838C93268137812F5F88
:1009F0003F4F3783268314C08B01EC01FB01008439
:100A0000F185E02D0995892BE1F6D80116968D9197
:100A10009C911797019617969C938E931697CE01EB
:100A2000DF91CF911F910F910895FA01AA272830E5
:100A300051F1203181F1E8946F936E7F6E5F7F4FAB
:100A40008F4F9F4FAF4FB1E03ED0B4E03CD0670F27
:100A5000781F891F9A1FA11D680F791F8A1F911D7A
:100A6000A11D6A0F711D811D911DA11D20D009F4CA
:100A700068943F912AE0269F11243019305D31930C
:100A8000DEF6CF010895462F4770405D4193B3E0F5
:100A90000FD0C9F7F6CF462F4F70405D4A3318F09C
:100AA000495D31FD4052419302D0A9F7EACFB4E04D
:100AB000A6959795879577956795BA95C9F7009705
:100AC0006105710508959B01AC010A2E06945795A6
:100AD000479537952795BA95C9F7620F731F841FFD
:100AE000951FA01D08952F923F924F925F926F9293
:100AF0007F928F929F92AF92BF92CF92DF92EF92AE
:100B0000FF920F931F93CF93DF93CDB7DEB7CA1B2E
:100B1000DB0B0FB6F894DEBF0FBECDBF09942A8859
:100B2000398848885F846E847D848C849B84AA8401
:100B3000B984C884DF80EE80FD800C811B81AA818E
:100B4000B981CE0FD11D0FB6F894DEBF0FBECDBF59
:080B5000ED010895F894FFCFB8
:100B5800760000007600000000000002000000009F
:100B68002E0200000000000000010000000000004C
:100B7800150200000A456D6265646465642073743B
:100B88007972657220666F722076696C64742021B0
:100B98002121000A496E74657272757074206F6E37
:100BA8002045787465726E616C2050696E20302E15
:100BB80020004E756D626572206F6620496E7465FF
:100BC800727275707473206F6E2045787465726EDA
:100BD800616C50696E2030203A2000253035640061
:00000001FF
