S01A000041646146727569745F446973706C61795F432E7372656323
S11300005FC100007AC1000078C1000076C1000021
S113001074C1000072C1000070C100006EC1000014
S11300206CC100006AC1000068C1000066C1000024
S113003064C1000062C1000060C100005EC1000034
S11300405CC100005AC100000C94870856C100002E
S113005054C1000052C1000050C100004EC1000054
S11300604CC100004AC1000048C1000046C1000064
S113007044C1000042C1000040C100003EC1000074
S11300803CC100003AC1000038C1000036C1000084
S113009034C1000032C1000030C100002EC1000094
S11300A02CC100002AC1000028C1000026C10000A4
S11300B024C1000000000000008181188181000734
S11300C0000700147F147F14242A7F2A12231308A4
S11300D0646236495522500005030000001C224189
S11300E0000041221C0014083E081408083E0808B9
S11300F00050300000080808080800606000002074
S1130100100804023E5149453E00427F40004261CE
S11301105149462141454B311814127F102745455A
S113012045393C4A49493001710905033649494971
S113013036064949291E00363600000056360000AE
S11301400814224100141414141400412214080247
S113015001510906324979413E7E1111117E7F49D0
S11301604949363E414141227F4141221C7F494950
S113017049417F090909013E4149497A7F08080834
S11301807F00417F41002040413F017F081422410C
S11301907F404040407F020C027F7F0408107F3E76
S11301A04141413E7F090909063E4151215E7F09D3
S11301B0192946464949493101017F01013F40401F
S11301C0403F1F2040201F3F4038403F6314081425
S11301D06307087008076151494543007F414100A6
S11301E002040810200041417F000402010204407F
S11301F040404040000102040020545454787F4899
S11302004444383844444420384444487F3854549F
S11302105418087E0901020C5252523E7F0804040D
S11302207800447D40002040443D007F1028440075
S113023000417F40007C041804787C08040478386A
S1130240444444387C14141408081414147C7C08A2
S11302500404084854545420043F4440203C404083
S1130260207C1C2040201C3C4030403C442810286A
S1130270440C5050503C4464544C440008364100F3
S113028000007F0000004136080010080810080034
S11302900000000011AE00A8013F2001004000D37F
S11302A00100A100C800DA011281017FA400A600A8
S11302B0D50180D901C2DB01208D01142E00AF00CD
S11302C011241FBECFEFD8E0DEBFCDBF14E0A0E005
S11302D0B1E0E2EAFBE102C005900D92A236B1075B
S11302E0D9F724E0A2E6B4E001C01D92A43BB20712
S11302F0E1F70E94A9090C94CF0D82CECF93DF932E
S113030000D0CDB7DEB78A838FEF89835CD489832D
S11303108981882311F0898109C08A818BD48983DA
S11303208981882311F0898101C080E00F900F90AA
S1130330DF91CF910895CF93DF9300D0CDB7DEB78F
S11303408A838FEF898380E8A2D489838981882373
S113035011F0898109C08A819AD48983898188238B
S113036011F0898101C080E00F900F90DF91CF914F
S11303700895CF93DF93CDB7DEB7A0970FB6F89467
S1130380DEBF0FBECDBF88A384E992E09A83898340
S11303908FEF8D8389819A819C012F5F3F4F3A8330
S11303A029839F838E838E819F81FC01849188871A
S11303B088858C83E6D388A1A1DF8D838D818823F2
S11303C011F08D81C4C084EEB6DF8D838D818823C6
S11303D011F08D81BCC080E090E0A0E8BFE38A8B7F
S11303E09B8BAC8BBD8B20E030E04AE753E46A89F9
S11303F07B898C899D890E94480ADC01CB018E8B04
S11304009F8BA88FB98F20E030E040E85FE36E89CE
S11304107F89888D998DBBD788232CF481E090E067
S11304209B8F8A8F3DC020E03FEF4FE757E46E89F2
S11304307F89888D998D0E94440A181644F520E01E
S113044030E040E251E46A897B898C899D890E946D
S1130450480ADC01CB01BC01CD019DD7DC01CB01F5
S11304609B8F8A8F0FC089E190E09D8F8C8F8C8D3C
S11304709D8D0197F1F79D8F8C8F8A8D9B8D0197B0
S11304809B8F8A8F8A8D9B8D892B69F713C06E8908
S11304907F89888D998D7FD7DC01CB019B8F8A8FD3
S11304A08A8D9B8D9F8F8E8F8E8D9F8D0197F1F7F7
S11304B09F8F8E8F43C089819A819C012F5F3F4F0C
S11304C03A8329839A87898789859A85FC0184914F
S11304D08B878B8530DF8D838D81882311F08D810F
S11304E036C089819A819C012F5F3F4F3A832983CB
S11304F09D878C878C859D85FC0184918E878E8554
S11305008B8316C089819A819C012F5F3F4F3A8368
S11305102983988B8F878F859889FC018491898B97
S1130520898909DF8D838D81882311F08D810FC026
S11305308B819FEF980F9B83882321F78C819FEFFA
S1130540980F9C83882309F0B6CFCDD380E0A09682
S11305500FB6F894DEBF0FBECDBFDF91CF910895E3
S1130560CF93DF9300D01F92CDB7DEB78FEF8B838D
S11305708CE3C4DE8B838B81882311F08B8172C062
S113058081E2D9DE8B838B81882311F08B816AC051
S113059080E0D1DE8B838B81882311F08B8162C054
S11305A08FE7C9DE8B838B81882311F08B815AC03E
S11305B0109263041092620482E2BDDE8B838B810D
S11305C0882311F08B814EC080E0B5DE8B838B8154
S11305D0882311F08B8146C087E0ADDE8B838B814D
S11305E0882311F08B813EC010926504109264043C
S11305F080E44DD38B838B81882311F08B8132C0AF
S11306001A82198225C080E042D38B838B81882390
S1130610D1F08B81882F90E0292F2F938F938A819B
S11306208F9389818F9385E291E0892F8F9385E25F
S113063091E08F93B8D70F900F900F900F900F9079
S11306400F908B810FC089819A8101969A83898347
S113065089819A8181159440B0F281E591E0B6D701
S113066042D380E00F900F900F90DF91CF910895C7
S1130670CF93DF9300D000D01F92CDB7DEB78A832B
S11306806B834C832D838FEF89838CE337DE8983DF
S11306908981882311F0898140C081E24CDE8983FD
S11306A08981882311F0898138C08A8144DE898355
S11306B08981882311F0898130C08B813CDE898354
S11306C08981882311F0898128C08A81882F90E04C
S11306D0909363048093620482E22DDE898389818E
S11306E0882311F0898119C08C8125DE8983898151
S11306F0882311F0898111C08D811DDE8983898150
S1130700882311F0898109C08C81882F90E090930F
S1130710650480936404E7D280E00F900F900F90FB
S11307200F900F90DF91CF910895CF93DF9300D076
S113073000D01F92CDB7DEB78C836D838FEF898392
S11307408FE78A8387E08B832B814D816A818C813B
S11307508FDF89838981882311F0898101C080E03A
S11307600F900F900F900F900F90DF91CF910895FD
S1130770CF93DF9300D01F92CDB7DEB78A836B830C
S11307808FEF89838A81882344F58B81873000F534
S113079082E090E090936304809362048091640407
S11307A0909165040196909365048093640480910C
S11307B0640490916504282F8091620490916304ED
S11307C0622FB3DF89838981882311F0898106C070
S11307D08B81873010F081E001C080E00F900F9092
S11307E00F90DF91CF910895CF93DF93CDB7DEB70C
S11307F02E970FB6F894DEBF0FBECDBF8D876E87E0
S11308008FEF8B8319821A828E85882F90E08F70E8
S11308109927892B09F064C08E85882F90E0807F0A
S11308209927892B11F080E88A8380916204909142
S113083063048B5F8C8380916404909165048D8341
S11308406D818C8195DF8B838B81882311F08B8163
S1130850D1C08CE353DD8B838B81882311F08B8192
S1130860C9C080E414D28B838B818823A9F18B8146
S1130870C1C08D85882F90E09C0120523109898167
S113088091E0980F9983482F50E0C901880F991F70
S1130890880F991F820F931F840F951F8C549F4FAD
S11308A09F838E838E819F81FC01849188878885B4
S11308B0898799858A81892BEAD18B838B818823C7
S11308C011F08B8197C0809162049091630401962A
S11308D090936304809362048981853050F277C0D9
S11308E08E85882F90E08F709927019709F06FC04B
S11308F08E85882F90E0807F9927892B11F080E8DE
S11309008A838091620490916304865F8C838091D2
S11309106404909165048D836D818C8129DF8B83C0
S11309208B81882311F08B8165C08CE3E7DC8B839A
S11309308B81882311F08B815DC080E4A8D18B83E7
S11309408B81882309F43FC08B8154C08D85882F07
S113095090E09C0120523109898191E0980F99839C
S1130960482F50E0C901880F991F880F991F820FE3
S1130970931F840F951F8C549F4F9B878A878A856A
S11309809B85FC0184918C878C85898799858A81D4
S1130990892B7DD18B838B81882311F08B812AC095
S11309A099858A81892B73D18B838B81882311F05C
S11309B08B8120C08091620490916304029690938D
S11309C06304809362048981853008F4BFCF8A81EF
S11309D05ED18B838B81882311F08B810BC0809136
S11309E0620490916304019690936304809362047B
S11309F07AD180E02E960FB6F894DEBF0FBECDBF3D
S1130A00DF91CF910895CF93DF9300D000D0CDB77D
S1130A10DEB79B838A836C8319820EC0898191E03F
S1130A20980F9983882F90E02A813B81820F931F2E
S1130A30FC0180816C81D8DE8981882F90E02A8135
S1130A403B81820F931FFC018081882339F780E06A
S1130A500F900F900F900F90DF91CF910895CF9347
S1130A60DF9300D01F92CDB7DEB78B8383E08A83F8
S1130A70198221C081E25FDC813041F088E05BDCD7
S1130A80813021F08FE057DC8130D1F489818F5F90
S1130A9089838981882F90E0292F2F938F938CEA63
S1130AA091E0892F8F938CEA91E08F937CD50F90FE
S1130AB00F900F900F9099818A819817D8F201C0F6
S1130AC0000099818A819817A1F48A81882F90E087
S1130AD0292F2F938F9382EE91E0892F8F9382EEAB
S1130AE091E08F9360D50F900F900F900F9081E05D
S1130AF042C0198221C082E21EDC813041F080E0D4
S1130B001ADC813021F080E016DC8130D1F4898157
S1130B108F5F89838981882F90E0292F2F938F936A
S1130B2082E192E0892F8F9382E192E08F933BD50B
S1130B300F900F900F900F9099818A819817D8F297
S1130B4001C0000099818A819817A1F48A81882FB5
S1130B5090E0292F2F938F9386E492E0892F8F932F
S1130B6086E492E08F931FD50F900F900F900F9013
S1130B7081E001C080E00F900F900F90DF91CF9142
S1130B800895CF93DF93CDB7DEB788EB90E022E0F2
S1130B90FC01208389EB90E0FC018081882F90E0A8
S1130BA082709927AC01416089EB90E029EB30E039
S1130BB0F9012081322F242F232BFC0120830000F4
S1130BC0DF91CF910895CF93DF93CDB7DEB789EB53
S1130BD090E029EB30E0F90120812775FC012083A6
S1130BE08CEB90E024EAFC01208300008CEB90E085
S1130BF0FC0180818823D4F789EB90E0FC0180819B
S1130C00882F90E0887F9927089781F089EB90E0FE
S1130C10FC018081882F90E0887F9927409731F0EC
S1130C2089EB90E0FC018081887F01C080E0DF9146
S1130C30CF910895CF93DF931F92CDB7DEB7898309
S1130C408BEB90E02981220FFC0120838CEB90E058
S1130C5024E8FC01208300008CEB90E0FC018081FF
S1130C608823D4F789EB90E0FC018081882F90E001
S1130C70887F9927489731F089EB90E0FC018081C7
S1130C80887F01C080E00F90DF91CF910895CF93CA
S1130C90DF931F92CDB7DEB789838BEB90E0298178
S1130CA0FC0120838CEB90E024E8FC01208300000D
S1130CB08CEB90E0FC0180818823D4F789EB90E0F1
S1130CC0FC018081882F90E0887F9927889731F0F4
S1130CD089EB90E0FC018081887F01C080E00F9067
S1130CE0DF91CF910895CF93DF93CDB7DEB78CEB2F
S1130CF090E024E9FC0120830000DF91CF91089566
S1130D00CF93DF9300D0CDB7DEB79A8389838981EF
S1130D109A819093AB048093AA0400000F900F90E3
S1130D20DF91CF910895CF93DF9300D0CDB7DEB795
S1130D3087E690E09A83898385EC90E029813A8163
S1130D40232F3327FC01208384EC90E02981FC01CC
S1130D50208381EC90E028E9FC01208382EC90E080
S1130D6026E0FC01208380E091E09093B10480931D
S1130D70B0048EE091E09093AF048093AE04000041
S1130D800F900F90DF91CF910895CF93DF93CDB75C
S1130D90DEB789EC90E029EC30E0F901208120688D
S1130DA0FC0120830000DF91CF910895CF93DF935E
S1130DB000D0CDB7DEB79A838983000080EC90E041
S1130DC0FC0180818823D4F786EC90E0FC018081CB
S1130DD0882F90E00F900F90DF91CF910895CF93DB
S1130DE0DF9300D01F92CDB7DEB789837B836A83FC
S1130DF0000080EC90E0FC018081882F90E08072FC
S1130E009927892BB1F386EC90E02981FC0120839A
S1130E1080E090E00F900F900F90DF91CF910895B4
S1130E20CF93DF9300D000D0CDB7DEB79B838A8306
S1130E306C838A819B81805C9F4FFC018081882F19
S1130E4090E001968F739078992324F40197806C35
S1130E509F6F019689838981482F50E08A819B8105
S1130E608F5B9F4FFC018081282F30E08A819B811A
S1130E70805C9F4FFC018081882F90E0652F6F93E9
S1130E804F93432F4F932F93292F2F938F9384E7BF
S1130E9092E0892F8F9384E792E08F9384D38DB768
S1130EA09EB708960FB6F894DEBF0FBECDBF8A81F9
S1130EB09B818F5B9F4FFC0190818981981749F139
S1130EC08A819B81805C9F4FFC018081882F90E008
S1130ED02A813B81820F931F2C81FC0120838A810C
S1130EE09B81805C9F4F2981FC0120838C81882F0A
S1130EF090E0292F2F938F9388E992E0892F8F9385
S1130F0088E992E08F934FD30F900F900F900F903A
S1130F100FC09091A90481E08927882349F088EBC8
S1130F2092E054D381E08093A80481E08093A904E3
S1130F3000000F900F900F900F90DF91CF910895C4
S1130F40CF93DF9300D000D0CDB7DEB79A838983E7
S1130F507C836B8389819A818F5B9F4FFC01208105
S1130F6089819A81805C9F4FFC018081281709F454
S1130F7066C089819A818F5B9F4FFC018081882F95
S1130F8090E029813A81820F931FFC0120818B819B
S1130F909C81FC01208389819A818F5B9F4FFC0196
S1130FA08081882F90E001968F739078992324F4A0
S1130FB00197806C9F6F0196282F89819A818F5B9E
S1130FC09F4FFC0120838B819C81FC018081882FB1
S1130FD090E0292F2F938F9389EC92E0892F8F93A0
S1130FE089EC92E08F93DFD20F900F900F900F90C7
S1130FF089819A818F5B9F4FFC018081282F30E08B
S113100089819A81805C9F4FFC018081882F90E0C8
S1131010432F4F932F93292F2F938F938FEE92E08B
S1131020892F8F938FEE92E08F93BDD20F900F9004
S11310300F900F900F900F9080E090E005C086E035
S113104093E0C4D28FEF9FEF0F900F900F900F900B
S1131050DF91CF910895CF93DF9300D000D0CDB727
S1131060DEB79C838B838B819C81805C9F4FFC01CA
S113107020818B819C818F5B9F4FFC01808128178D
S1131080A8F08B819C81805C9F4FFC018081282F7C
S113109030E08B819C818F5B9F4FFC018081882F86
S11310A090E0A901481B590BCA0116C08B819C8191
S11310B08F5B9F4FFC018081882F90E020E430E01B
S11310C0281B390B8B819C81805C9F4FFC018081A4
S11310D0882F90E0820F931F9A8389838A818F934C
S11310E089818F9387E193E0892F8F9387E193E040
S11310F08F9359D20F900F900F900F9089819A81FE
S11311000F900F900F900F90DF91CF9108951F9241
S11311100F9200905F000F9211242F933F934F93EF
S11311205F936F937F938F939F93AF93BF93EF934B
S1131130FF93CF93DF931F92CDB7DEB786EC90E099
S1131140FC01808189838981882F90E0292F2F9346
S11311508F9387E993E0892F8F9387E993E08F93A7
S113116022D20F900F900F900F90698186E694E041
S113117057DE8091AA049091AB04892B39F0209119
S1131180AA043091AB048981F901099500000F90FC
S1131190DF91CF91FF91EF91BF91AF919F918F918B
S11311A07F916F915F914F913F912F910F9000929A
S11311B05F000F901F901895CF93DF931F92CDB7C8
S11311C0DEB789838981882F90E0BC0186E694E0AC
S11311D027DE00000F90DF91CF910895CF93DF9326
S11311E0CDB7DEB7BDD960E080E09FDA60E08DE185
S11311F091E009DC80911C0132DC80911C012FDC20
S1131200813021F480EC93E0E1D103C088ED93E0D8
S1131210DDD10000DF91CF910895CF93DF931F922A
S1131220CDB7DEB786E694E016DF181619060CF083
S11312308BC081C08981882F90E0292F2F938F93B1
S113124086EF93E0892F8F9386EF93E08F93ABD152
S11312500F900F900F900F908091AD04882F90E025
S1131260292F2F938F938EE094E0892F8F938EE014
S113127094E08F9398D10F900F900F900F908981E5
S11312808A3029F08091AD04873008F447C08091FA
S1131290AD04882F90E0835E9E4FFC0110828DE1A7
S11312A091E0892F8F938DE191E08F9381E294E017
S11312B0892F8F9381E294E08F9375D10F900F90D3
S11312C00F900F908091AD04882F90E0292F2F93D9
S11312D08F9383E394E0892F8F9383E394E08F9338
S11312E062D10F900F900F900F9078DF1092AD04A1
S11312F08091AC04882F90E00196877090789923B0
S113130024F40197886F9F6F01968093AC0428D9C9
S11313108091AC04682F80E008DA0DC08091AD04A0
S113132091E0980F9093AD04882F90E02981835E1B
S11313309E4FFC012083CE010196BC0186E694E019
S1131340FFDD892B09F476CF00000F90DF91CF9158
S11313500895CF93DF93CDB7DEB7E5DC8CED98E04D
S1131360CFDC13DD80911C0104D8FAD860E080E062
S1131370DCD960E085E594E046DB80911C016FDBFD
S113138078941092A6041092A70447DFFECF2FD0C2
S113139008F481E0089557D088F09F5790F0B92F52
S11313A09927B751A0F0D1F0660F771F881F991FB6
S11313B01AF0BA95C9F712C0B13081F05ED0B1E02D
S11313C008955BC0672F782F8827B85F39F0B93F3D
S11313D0CCF3869577956795B395D9F73EF49095B8
S11313E08095709561957F4F8F4F9F4F0895990F0A
S11313F00008550FAA0BE0E8FEEF16161706E807DB
S1131400F907C0F012161306E407F50798F0621BFB
S1131410730B840B950B39F40A2661F0232B242BD0
S1131420252B21F408950A2609F4A140A6958FEFEF
S1131430811D811D089557FD9058440F551F59F083
S11314405F3F71F04795880F97FB991F61F09F3FAD
S113145079F087950895121613061406551FF2CFD6
S11314604695F1DF08C0161617061806991FF1CF26
S113147086957105610508940895E894BB2766274D
S11314807727CB0197F90895B2DF08F48FEF089519
S11314900BD078C069D028F06ED018F0952309F0ED
S11314A05AC05FC01124EACFC6DFA0F3959FD1F3E1
S11314B0950F50E0551F629FF001729FBB27F00DFE
S11314C0B11D639FAA27F00DB11DAA1F649F662753
S11314D0B00DA11D661F829F2227B00DA11D621FA2
S11314E0739FB00DA11D621F839FA00D611D221F5C
S11314F0749F3327A00D611D231F849F600D211D40
S1131500822F762F6A2F11249F5750408AF0E1F0E2
S113151088234AF0EE0FFF1FBB1F661F771F881F2B
S113152091505040A9F79E3F510570F014C0A6CFCA
S11315305F3FECF3983EDCF3869577956795B79516
S1131540F795E7959F5FC1F7FE2B880F911D969540
S1131550879597F9089597F99F6780E870E060E0B0
S113156008959FEF80EC089500240A941616170638
S113157018060906089500240A9412161306140680
S113158005060895092E0394000C11F4882352F0E3
S1131590BB0F40F4BF2B11F460FF04C06F5F7F4F9B
S11315A08F4F9F4F0895A0E0B0E0E8EDFAE0D0C27D
S11315B0AE014B5F5F4FFA0161917191AF01809170
S11315C0B0049091B10432D0E2E0DEC20F931F93D5
S11315D0CF93DF93E091B004F091B104238121FF14
S11315E01BC08C01D0E0C0E0F80181918F016091B3
S11315F0B0047091B104DB011896ED91FC91199738
S1131600882331F00995892B79F3DFEFCFEFECCF05
S11316108AE00995892B19F08FEF9FEF02C08D2F77
S11316209C2FDF91CF911F910F910895ABE0B0E013
S1131630EBE1FBE07DC26C017B018A01FC011782B6
S11316401682838181FFBFC1CE0101963C01F60160
S11316509381F70193FD859193FF81917F01882305
S113166009F4ADC1853239F493FD859193FF8191DD
S11316707F01853221F4B60190E0C0D1E8CF912CEE
S1131680212C312CFFE1F315D8F08B3279F038F4AA
S1131690803279F08332A1F4232D20611DC08D3274
S11316A061F0803369F4232D216016C0832D82609C
S11316B0382EE32DE4603E2E2AC0F32DF8601DC0C1
S11316C037FC2DC020ED280F2A3040F08E32B9F4BB
S11316D036FC75C1232D2064322E19C036FE06C097
S11316E08AE0989E200D1124922E11C0EAE02E9ECD
S11316F0200D1124222EF32DF0623F2E08C08C36CB
S113170021F4832D8068382E02C0883641F4F70115
S113171093FD859193FF81917F018111B3CF982F20
S11317209F7D9554933028F40C5F1F4F9FE399835A
S11317300DC0833631F0833771F0833509F055C01D
S113174020C0F801808189830E5F1F4F8824839411
S1131750912C530112C02801F2E04F0E511CF801E4
S1131760A080B18036FE03C0692D70E002C06FEF27
S11317707FEFC50138D14C018201F32DFF773F2E55
S113178015C0280122E0420E511CF801A080B1804E
S113179036FE03C0692D70E002C06FEF7FEFC50114
S11317A017D14C01F32DF0683F2E820133FC19C090
S11317B0822D90E088169906A0F4B60180E290E0AC
S11317C01DD12A94F5CFF50137FC859137FE81911F
S11317D05F01B60190E012D121102A9421E0821A0F
S11317E091088114910479F7E1C0843611F08936A7
S11317F039F5F80137FE07C06081718182819381D8
S11318000C5F1F4F08C060817181072E000C880B8C
S1131810990B0E5F1F4FF32DFF763F2E97FF09C0E4
S113182090958095709561957F4F8F4F9F4FF0688D
S11318303F2E2AE030E0A3011DD1882E861844C033
S1131840853731F4232D2F7EB22E2AE030E025C0D7
S1131850932D997FB92E8F36C1F018F4883579F01D
S1131860AEC0803719F0883721F0A9C0E92FE061B4
S1131870BE2EB4FE0DC0FB2DF460BF2E09C034FE95
S11318800AC0292F2660B22E06C028E030E005C029
S113189020E130E002C020E132E0F801B7FE07C0E9
S11318A060817181828193810C5F1F4F06C06081CA
S11318B0718180E090E00E5F1F4FA301DBD0882E82
S11318C08618FB2DFF773F2E36FE0DC0232D2E7F6D
S11318D0A22E891458F434FE0BC032FC09C0832DA7
S11318E08E7EA82E05C0B82CA32C03C0B82C01C032
S11318F0B92CA4FE0FC0FE01E80DF11D80818033D8
S113190021F49A2D997EA92E09C0A2FE06C0B39493
S1131910B39404C08A2D867809F0B394A3FC10C054
S1131920A0FE06C0B21480F4280C922C9B180DC0A3
S1131930B21458F4B60180E290E060D0B394F8CFCA
S1131940B21418F42B1802C0982C212CA4FE0FC03A
S1131950B60180E390E052D0A2FE16C0A1FC03C001
S113196088E790E002C088E590E0B6010CC08A2DBB
S1131970867851F0A1FE02C08BE201C080E2A7FC90
S11319808DE2B60190E03AD0891430F4B60180E3D8
S113199090E034D09A94F8CF8A94F301E80DF11DC5
S11319A08081B60190E02AD08110F6CF222009F47C
S11319B04ECEB60180E290E021D02A94F7CFF60112
S11319C08681978102C08FEF9FEF2B96E2E1CCC016
S11319D0FC010590615070400110D8F780959095F6
S11319E08E0F9F1F0895FC016150704001900110FB
S11319F0D8F7809590958E0F9F1F08950F931F938E
S1131A00CF93DF93FB01238121FD03C08FEF9FEF71
S1131A102CC022FF16C0468157812481358142178C
S1131A20530744F4A081B1819D012F5F3F4F31835F
S1131A3020838C93268137812F5F3F4F3783268302
S1131A4014C08B01EC01FB010084F185E02D0995A4
S1131A50892BE1F6D80116968D919C9117970196E2
S1131A6017969C938E931697CE01DF91CF911F9179
S1131A700F910895FA01AA27283051F1203181F1FC
S1131A80E8946F936E7F6E5F7F4F8F4F9F4FAF4F82
S1131A90B1E03ED0B4E03CD0670F781F891F9A1F95
S1131AA0A11D680F791F8A1F911DA11D6A0F711D49
S1131AB0811D911DA11D20D009F468943F912AE055
S1131AC0269F11243019305D3193DEF6CF0108953D
S1131AD0462F4770405D4193B3E00FD0C9F7F6CF6E
S1131AE0462F4F70405D4A3318F0495D31FD405236
S1131AF0419302D0A9F7EACFB4E0A69597958795CC
S1131B0077956795BA95C9F70097610571050895AA
S1131B109B01AC010A2E0694579547953795279556
S1131B20BA95C9F7620F731F841F951FA01D0895EE
S1131B302F923F924F925F926F927F928F929F92D9
S1131B40AF92BF92CF92DF92EF92FF920F931F93C7
S1131B50CF93DF93CDB7DEB7CA1BDB0B0FB6F89478
S1131B60DEBF0FBECDBF09942A88398848885F84B8
S1131B706E847D848C849B84AA84B984C884DF8029
S1131B80EE80FD800C811B81AA81B981CE0FD11D0D
S1131B900FB6F894DEBF0FBECDBFED010895F894E3
S1051BA0FFCF71
S1131BA20000000200000000EF0600000000000038
S1131BB20001000000000000D60600003C300000D6
S1131BC200000000004572726F722073656E6469D2
S1131BD26E67206461746120617420696E64657843
S1131BE22025642C207374617475733A2025640A69
S1131BF2005375636365737366756C6C7920636CEB
S1131C02656172656420646973706C6179206D65C5
S1131C126D6F72792E004572726F722073656E64F5
S1131C22696E6720636F6D6D616E64203078253054
S1131C3232582C207265747279696E672E2E2E20AA
S1131C42417474656D70742025640A004572726F64
S1131C52722073657474696E6720636F6C756D6E40
S1131C6220616464726573732C207265747279697D
S1131C726E672E2E2E20417474656D707420256457
S1131C820A004661696C656420746F207365742070
S1131C92636F6C756D6E2061646472657373206129
S1131CA26674657220256420726574726965732E88
S1131CB20A004572726F722073657474696E6720CC
S1131CC27061676520616464726573732C20726548
S1131CD2747279696E672E2E2E20417474656D704C
S1131CE2742025640A004661696C656420746F205F
S1131CF273657420706167652061646472657373CF
S1131D022061667465722025642072657472696547
S1131D12732E0A005075743A20486561643D256447
S1131D222C205461696C3D25642C204E65787448DE
S1131D326561643D25640A005075743A20446174F7
S1131D4261202725632720616464656420746F2001
S1131D526275666665720A00427566666572206F10
S1131D62766572666C6F7721004765743A20446128
S1131D72746120272563272072657472696576650C
S1131D82642066726F6D206275666665720A00472A
S1131D9265743A20486561643D25642C2054616968
S1131DA26C3D25640A00427566666572206973207B
S1131DB2656D70747921004275666665722061767C
S1131DC261696C61626C653A2025640A0042756639
S1131DD266657220636C65617265642E0042756685
S1131DE2666572207374617475733A204865616420
S1131DF23D25642C205461696C3D25642C20417678
S1131E0261696C61626C653D25640A0042756666AF
S1131E12657220436F6E74656E74733A2000256395
S1131E2220000A486561643A2025642C20546169C3
S1131E326C3A2025640A0049535230207265636566
S1131E42697665643A2025630A002564000A003035
S1131E52313233343536373839414243444546000A
S1131E624572726F72207570646174696E67206462
S1131E726973706C61792E00446973706C617920A6
S1131E8275706461746564207375636365737366E6
S1131E92756C6C792E00526563656976656420639E
S1131EA268617261637465723A2025630A0053742F
S1131EB272696E67206C656E6774683A2025640ADD
S1131EC20046696E616C20737472696E673A2025EC
S1131ED2730A00537472696E67206C656E67746866
S1131EE2206265666F726520646973706C61793A09
S1131EF22025640A0054657374204D657373616709
S1051F02650074
S9030000FC
