:1000000062C100007BC1000079C1000077C100001F
:1000100075C1000073C1000071C100006FC1000014
:100020006DC100006BC1000069C1000067C1000024
:1000300065C1000063C1000061C100005FC1000034
:100040005DC100005BC1000059C1000057C1000044
:1000500055C1000053C1000051C100004FC1000054
:100060004DC100004BC1000049C1000047C1000064
:10007000B1C4000043C1000041C100003FC1000005
:100080003DC100003BC1000039C1000037C1000084
:1000900035C1000033C1000031C100002FC1000094
:1000A0002DC100002BC1000029C1000027C10000A4
:1000B00025C1000000000000008181188181000737
:1000C000000700147F147F14242A7F2A12231308A8
:1000D000646236495522500005030000001C22418D
:1000E000000041221C0014083E081408083E0808BD
:1000F0000050300000080808080800606000002078
:10010000100804023E5149453E00427F40004261D2
:100110005149462141454B311814127F102745455E
:1001200045393C4A49493001710905033649494975
:1001300036064949291E00363600000056360000B2
:10014000081422410014141414140041221408024B
:1001500001510906324979413E7E1111117E7F49D4
:100160004949363E414141227F4141221C7F494954
:1001700049417F090909013E4149497A7F08080838
:100180007F00417F41002040413F017F0814224110
:100190007F404040407F020C027F7F0408107F3E7A
:1001A0004141413E7F090909063E4151215E7F09D7
:1001B000192946464949493101017F01013F404023
:1001C000403F1F2040201F3F4038403F6314081429
:1001D0006307087008076151494543007F414100AA
:1001E00002040810200041417F0004020102044083
:1001F00040404040000102040020545454787F489D
:100200004444383844444420384444487F385454A3
:100210005418087E0901020C5252523E7F08040411
:100220007800447D40002040443D007F1028440079
:1002300000417F40007C041804787C08040478386E
:10024000444444387C14141408081414147C7C08A6
:100250000404084854545420043F4440203C404087
:10026000207C1C2040201C3C4030403C442810286E
:10027000440C5050503C4464544C440008364100F7
:1002800000007F0000004136080010080810080038
:10029000000000001200AE013F3F012000022100DB
:1002A0007F02220007004001D30000A100C8011214
:1002B0001201817F00A400A601D58001D9C201DB13
:1002C00020018D1400AF11241FBECFEFD8E0DEBF98
:1002D000CDBF11E0A0E0B1E0E8E6F1E102C0059099
:1002E0000D92A636B107D9F725E0A6E6B1E001C028
:1002F0001D92A337B207E1F7FCD334C781CECF9369
:10030000DF93CDB7DEB764970FB6F894DEBF0FBEAC
:10031000CDBF8C8B84E992E09A83898389819A810D
:100320009C012F5F3F4F3A8329839F838E838E8169
:100330009F81FC01849188878885882F90E09C8329
:100340008B838FEF8987C3D18C8960D0898789851A
:10035000882309F44BC0898550C089819A819C010A
:100360002F5F3F4F3A8329839B878A878A859B85A6
:10037000FC0184918C878C858D8389819A819C0175
:100380002F5F3F4F3A8329839E878D878D859E857A
:10039000FC0184918F878F85888B888954D08987C9
:1003A00089858823C1F0898528C089819A819C012B
:1003B0002F5F3F4F3A8329839A8B898B89899A894A
:1003C000FC0184918B8B8B893ED08987898588231A
:1003D00011F0898512C08D819FEF980F9D8388232E
:1003E00021F78B819C8101979C838B838B819C81DE
:1003F000892B09F0B2CF1DD280E064960FB6F89435
:10040000DEBF0FBECDBFDF91CF910895CF93DF93B5
:1004100000D0CDB7DEB78A838FEF89837AD1898305
:100420008981882311F0898109C08A81A9D18983B2
:100430008981882311F0898101C080E00F900F909D
:10044000DF91CF910895CF93DF9300D0CDB7DEB782
:100450008A838FEF898380E8C0D18983898188234B
:1004600011F0898109C08A81B8D189838981882363
:1004700011F0898101C080E00F900F90DF91CF9142
:100480000895CF93DF9300D000D0CDB7DEB78C8333
:100490008FEF8B831A8219828C81B8DF8B838B81DB
:1004A000882311F08B8121C080E497D18B838B81CD
:1004B0008823A1F08B8119C089819A818A599E4F26
:1004C000FC0180818AD18B838B81882311F08B8101
:1004D0000CC089819A8101969A83898389819A8146
:1004E0008115944048F3A5D180E00F900F900F90B4
:1004F0000F90DF91CF910895CF93DF93CDB7DEB703
:1005000040E054E060E070E086E691E04CD300000B
:10051000DF91CF910895CF93DF9300D0CDB7DEB7B1
:1005200089836A838981282F30E08A81882F90E02F
:100530009695982F882797958795820F931F90936C
:100540006C0580936B0500000F900F90DF91CF91A9
:100550000895CF93DF9300D01F92CDB7DEB780917F
:100560006B0590916C05880F892F881F990B9195C9
:10057000898380916B0590916C05982F898187956F
:1005800088278795292F281B822F8A838A818A5F53
:100590008B838B818823BCF48981883010F081E0C3
:1005A00013C08981863078F489818F5F898389813E
:1005B000882F90E09695982F882797958795909308
:1005C0006C0580936B0580E00F900F900F90DF918A
:1005D000CF910895CF93DF9300D000D01F92CDB775
:1005E000DEB78D831982B5DF813081F581E03BC0B4
:1005F00020916B0530916C05C901019690936C05B3
:1006000080936B058D81882F90E0AC014052510999
:10061000898191E0980F9983682F70E0CA01880F53
:10062000991F880F991F840F951F860F971F8C5451
:100630009F4F9B838A838A819B81FC0184918C8359
:100640004C81C9018A599E4FFC01408389818530C4
:1006500078F280916B0590916C05019690936C05F2
:1006600080936B0580E00F900F900F900F900F908C
:10067000DF91CF910895CF93DF9300D000D0CDB715
:10068000DEB79C838B831A8219820FC089819A817D
:100690009C012F5F3F4F3A8329839C018B819C8172
:1006A000820F931FFC01808195DF89819A812B81C4
:1006B0003C81820F931FFC018081882339F7000061
:1006C0000F900F900F900F90DF91CF910895CF93DF
:1006D000DF93CDB7DEB788EB90E022E0FC0120830A
:1006E00089EB90E0FC018081882F90E0827099274F
:1006F000AC01416089EB90E029EB30E0F901208109
:10070000322F242F232BFC0120830000DF91CF9177
:100710000895CF93DF93CDB7DEB789EB90E029EB57
:1007200030E0F90120812775FC0120838CEB90E0FB
:1007300024EAFC01208300008CEB90E0FC01808126
:100740008823D4F789EB90E0FC018081882F90E02A
:10075000887F9927089781F089EB90E0FC018081E0
:10076000882F90E0887F9927409731F089EB90E0BF
:10077000FC018081887F01C080E0DF91CF910895E6
:10078000CF93DF931F92CDB7DEB789838BEB90E0D9
:100790002981220FFC0120838CEB90E024E8FC01EE
:1007A000208300008CEB90E0FC0180818823D4F74B
:1007B00089EB90E0FC018081882F90E0887F992769
:1007C000489731F089EB90E0FC018081887F01C07F
:1007D00080E00F90DF91CF910895CF93DF931F9228
:1007E000CDB7DEB789838BEB90E02981FC012083B4
:1007F0008CEB90E024E8FC01208300008CEB90E07F
:10080000FC0180818823D4F789EB90E0FC01808192
:10081000882F90E0887F9927889731F089EB90E0C6
:10082000FC018081887F01C080E00F90DF91CF9133
:100830000895CF93DF93CDB7DEB78CEB90E024E93A
:10084000FC0120830000DF91CF910895CF93DF93C7
:1008500000D0CDB7DEB79A83898389819A8190933E
:1008600067058093660500000F900F90DF91CF9190
:100870000895CF93DF9300D0CDB7DEB787E690E041
:100880009A8389838CEC90E02981FC0120838DEC94
:1008900090E029813A81232F3327FC01208388ECC3
:1008A00090E0FC01108289EC90E028E1FC012083BB
:1008B0008AEC90E026E0FC01208380E091E09093B8
:1008C000700580936F058EE091E090936E058093A4
:1008D0006D0500000F900F90DF91CF910895CF9399
:1008E000DF93CDB7DEB789EC90E029EC30E0F90179
:1008F00020812068FC0120830000DF91CF910895C2
:10090000CF93DF9300D0CDB7DEB79A838983000001
:1009100088EC90E0FC0180818823D4F78EEC90E095
:10092000FC018081882F90E00F900F90DF91CF9194
:100930000895CF93DF9300D01F92CDB7DEB78983A0
:100940007B836A83000088EC90E0FC018081882F23
:1009500090E080729927892BB1F38EEC90E0298189
:10096000FC01208380E090E00F900F900F90DF91CA
:10097000CF910895CF93DF9300D0CDB7DEB79A83A0
:10098000898389819A81FC018081813430F0898159
:100990009A81FC0180818E3560F089819A81FC0109
:1009A0008081813688F089819A81FC0180818E372F
:1009B00058F489819A81FC01908180E2292F2827AF
:1009C00089819A81FC01208300000F900F90DF91B4
:1009D000CF9108951F920F9200905F000F92112403
:1009E0002F933F934F935F936F937F938F939F9337
:1009F000AF93BF93EF93FF93CF93DF931F92CDB746
:100A0000DEB78EEC90E0FC0180818983CE010196F7
:100A1000B1DF20916605309167058981F90109955B
:100A20008EEC90E02981FC01208300000F90DF9183
:100A3000CF91FF91EF91BF91AF919F918F917F9156
:100A40006F915F914F913F912F910F9000925F00B6
:100A50000F901F901895CF93DF931F92CDB7DEB7FD
:100A6000898389818093680581E08093690500000E
:100A70000F90DF91CF910895CF93DF9300D01F9215
:100A8000CDB7DEB78B8380916A0591E0980F909384
:100A90006A05682F80E03FDD8DE191E0ECDD8B8120
:100AA000882F90E0292F2F938F938AE291E0892F4E
:100AB0008F938AE291E08F93CE0101969F938F935B
:100AC00079D00F900F900F900F900F900F90CE0154
:100AD0000196D1DD80911C01D4DC80916A0587707C
:100AE00080936A0500000F900F900F90DF91CF91D7
:100AF0000895CF93DF931F92CDB7DEB7BADE8BE2B6
:100B000095E0A4DE8CE389838981F9DBF5DC60E084
:100B100087E001DD8DE291E0AEDD8981B2DC61E04C
:100B200087E0F9DC84E391E0A6DD8981AADC62E05C
:100B300087E0F1DC8BE391E09EDD8981A2DC63E05C
:100B400087E0E9DC82E491E096DD89819ADC64E06B
:100B500087E0E1DC89E491E08EDD898192DC65E06B
:100B600087E0D9DC80E591E086DD89818ADC66E07A
:100B700087E0D1DC87E591E07EDD898182DC67E07A
:100B800087E0C9DC8EE591E076DD89817ADCA7DE3D
:100B90007894809169058823E1F31092690580912A
:100BA00068056ADFF6CFDC0101C06D93415050400B
:100BB000E0F70895AEE0B0E0EFEDF5E0AAC20D89F0
:100BC0001E8986E08C831A8309838FEF9FE79E83BB
:100BD0008D83AE01475E5F4F6F89788DCE010196A0
:100BE00008D0EF81F885E00FF11F10822E96E4E027
:100BF000ACC2ABE0B0E0EEEFF5E07DC26C017B0192
:100C00008A01FC0117821682838181FFBFC1CE0158
:100C100001963C01F6019381F70193FD859193FFC5
:100C200081917F01882309F4ADC1853239F493FDA8
:100C3000859193FF81917F01853221F4B60190E087
:100C4000C0D1E8CF912C212C312CFFE1F315D8F045
:100C50008B3279F038F4803279F08332A1F4232D8D
:100C600020611DC08D3261F0803369F4232D216035
:100C700016C0832D8260382EE32DE4603E2E2AC0FC
:100C8000F32DF8601DC037FC2DC020ED280F2A3051
:100C900040F08E32B9F436FC75C1232D2064322E1B
:100CA00019C036FE06C08AE0989E200D1124922EAF
:100CB00011C0EAE02E9E200D1124222EF32DF062A9
:100CC0003F2E08C08C3621F4832D8068382E02C058
:100CD000883641F4F70193FD859193FF81917F015F
:100CE0008111B3CF982F9F7D9554933028F40C5FDA
:100CF0001F4F9FE399830DC0833631F0833771F026
:100D0000833509F055C020C0F801808189830E5FCA
:100D10001F4F88248394912C530112C02801F2E0C4
:100D20004F0E511CF801A080B18036FE03C0692D22
:100D300070E002C06FEF7FEFC50138D14C01820136
:100D4000F32DFF773F2E15C0280122E0420E511CE3
:100D5000F801A080B18036FE03C0692D70E002C0AA
:100D60006FEF7FEFC50117D14C01F32DF0683F2ED7
:100D7000820133FC19C0822D90E088169906A0F4F8
:100D8000B60180E290E01DD12A94F5CFF50137FC41
:100D9000859137FE81915F01B60190E012D121105B
:100DA0002A9421E0821A91088114910479F7E1C014
:100DB000843611F0893639F5F80137FE07C06081B5
:100DC0007181828193810C5F1F4F08C060817181A6
:100DD000072E000C880B990B0E5F1F4FF32DFF762B
:100DE0003F2E97FF09C090958095709561957F4F34
:100DF0008F4F9F4FF0683F2E2AE030E0A3011DD1B6
:100E0000882E861844C0853731F4232D2F7EB22ECC
:100E10002AE030E025C0932D997FB92E8F36C1F09E
:100E200018F4883579F0AEC0803719F0883721F092
:100E3000A9C0E92FE061BE2EB4FE0DC0FB2DF46009
:100E4000BF2E09C034FE0AC0292F2660B22E06C06C
:100E500028E030E005C020E130E002C020E132E0CF
:100E6000F801B7FE07C060817181828193810C5FB8
:100E70001F4F06C06081718180E090E00E5F1F4FC0
:100E8000A301DBD0882E8618FB2DFF773F2E36FE80
:100E90000DC0232D2E7FA22E891458F434FE0BC0D2
:100EA00032FC09C0832D8E7EA82E05C0B82CA32C41
:100EB00003C0B82C01C0B92CA4FE0FC0FE01E80D80
:100EC000F11D8081803321F49A2D997EA92E09C0CD
:100ED000A2FE06C0B394B39404C08A2D867809F0AC
:100EE000B394A3FC10C0A0FE06C0B21480F4280C7A
:100EF000922C9B180DC0B21458F4B60180E290E019
:100F000060D0B394F8CFB21418F42B1802C0982C08
:100F1000212CA4FE0FC0B60180E390E052D0A2FEC7
:100F200016C0A1FC03C088E790E002C088E590E00D
:100F3000B6010CC08A2D867851F0A1FE02C08BE26A
:100F400001C080E2A7FC8DE2B60190E03AD089149E
:100F500030F4B60180E390E034D09A94F8CF8A94CC
:100F6000F301E80DF11D8081B60190E02AD08110D7
:100F7000F6CF222009F44ECEB60180E290E021D0D7
:100F80002A94F7CFF6018681978102C08FEF9FEFF9
:100F90002B96E2E1CCC0FC0105906150704001103D
:100FA000D8F7809590958E0F9F1F0895FC01615092
:100FB000704001900110D8F7809590958E0F9F1F7B
:100FC00008950F931F93CF93DF93FB01238121FD9E
:100FD00003C08FEF9FEF2CC022FF16C046815781C0
:100FE000248135814217530744F4A081B1819D01CA
:100FF0002F5F3F4F318320838C93268137812F5F72
:101000003F4F3783268314C08B01EC01FB01008422
:10101000F185E02D0995892BE1F6D80116968D9181
:101020009C911797019617969C938E931697CE01D5
:10103000DF91CF911F910F910895FA01AA272830CF
:1010400051F1203181F1E8946F936E7F6E5F7F4F95
:101050008F4F9F4FAF4FB1E03ED0B4E03CD0670F11
:10106000781F891F9A1FA11D680F791F8A1F911D64
:10107000A11D6A0F711D811D911DA11D20D009F4B4
:1010800068943F912AE0269F11243019305D3193F6
:10109000DEF6CF010895462F4770405D4193B3E0DF
:1010A0000FD0C9F7F6CF462F4F70405D4A3318F086
:1010B000495D31FD4052419302D0A9F7EACFB4E037
:1010C000A6959795879577956795BA95C9F70097EF
:1010D0006105710508959B01AC010A2E0694579590
:1010E000479537952795BA95C9F7620F731F841FE7
:1010F000951FA01D08952F923F924F925F926F927D
:101100007F928F929F92AF92BF92CF92DF92EF9297
:10111000FF920F931F93CF93DF93CDB7DEB7CA1B18
:10112000DB0B0FB6F894DEBF0FBECDBF09942A8843
:10113000398848885F846E847D848C849B84AA84EB
:10114000B984C884DF80EE80FD800C811B81AA8178
:10115000B981CE0FD11D0FB6F894DEBF0FBECDBF43
:08116000ED010895F894FFCFA2
:1011680000000002000000009904000000000000D8
:101178000001000000000000800400003C6368617A
:10118800726163746572203A20002563004C696EB1
:10119800652031004C696E652032004C696E65200F
:1011A80033004C696E652034004C696E652035004B
:1011B8004C696E652036004C696E652037004C69B5
:0611C8006E6520380000F6
:00000001FF
