:100000005FC100007AC1000078C1000076C1000025
:1000100074C1000072C1000070C100006EC1000018
:100020006CC100006AC1000068C1000066C1000028
:1000300064C1000062C1000060C100005EC1000038
:100040005CC100005AC1000058C1000056C1000048
:1000500054C1000052C1000050C100004EC1000058
:100060004CC100004AC1000048C1000046C1000068
:100070000C948B0842C1000040C100003EC100004A
:100080003CC100003AC1000038C1000036C1000088
:1000900034C1000032C1000030C100002EC1000098
:1000A0002CC100002AC1000028C1000026C10000A8
:1000B00024C1000000000000008181188181000738
:1000C000000700147F147F14242A7F2A12231308A8
:1000D000646236495522500005030000001C22418D
:1000E000000041221C0014083E081408083E0808BD
:1000F0000050300000080808080800606000002078
:10010000100804023E5149453E00427F40004261D2
:100110005149462141454B311814127F102745455E
:1001200045393C4A49493001710905033649494975
:1001300036064949291E00363600000056360000B2
:10014000081422410014141414140041221408024B
:1001500001510906324979413E7E1111117E7F49D4
:100160004949363E414141227F4141221C7F494954
:1001700049417F090909013E4149497A7F08080838
:100180007F00417F41002040413F017F0814224110
:100190007F404040407F020C027F7F0408107F3E7A
:1001A0004141413E7F090909063E4151215E7F09D7
:1001B000192946464949493101017F01013F404023
:1001C000403F1F2040201F3F4038403F6314081429
:1001D0006307087008076151494543007F414100AA
:1001E00002040810200041417F0004020102044083
:1001F00040404040000102040020545454787F489D
:100200004444383844444420384444487F385454A3
:100210005418087E0901020C5252523E7F08040411
:100220007800447D40002040443D007F1028440079
:1002300000417F40007C041804787C08040478386E
:10024000444444387C14141408081414147C7C08A6
:100250000404084854545420043F4440203C404087
:10026000207C1C2040201C3C4030403C442810286E
:10027000440C5050503C4464544C440008364100F7
:1002800000007F0000004136080010080810080038
:100290000000000011AE00A8013F2001004000D383
:1002A0000100A100C800DA011281017FA400A600AC
:1002B000D50180D901C2DB01208D01142E00AF00D1
:1002C00011241FBECFEFD8E0DEBFCDBF14E0A0E009
:1002D000B1E0EAE8FCE102C005900D92A23CB10752
:1002E000D9F725E0A2ECB4E001C01D92A431B20719
:1002F000E1F70E94DC090C94430E82CECF93DF938A
:1003000000D0CDB7DEB78A838FEF898343D489834A
:100310008981882311F0898109C08A8172D48983F7
:100320008981882311F0898101C080E00F900F90AE
:10033000DF91CF910895CF93DF9300D0CDB7DEB793
:100340008A838FEF898380E889D489838981882390
:1003500011F0898109C08A8181D4898389818823A8
:1003600011F0898101C080E00F900F90DF91CF9153
:100370000895CF93DF93CDB7DEB7A0970FB6F8946B
:10038000DEBF0FBECDBF88A384E992E09A83898344
:100390008FEF8D8389819A819C012F5F3F4F3A8334
:1003A00029839F838E838E819F81FC01849188871E
:1003B00088858C83CDD388A1A1DF8D838D8188230F
:1003C00011F08D81C6C084EEB6DF8D838D818823C8
:1003D00011F08D81BEC080E090E0A0E8BFE38A8B81
:1003E0009B8BAC8BBD8B20E030E04AE753E46A89FD
:1003F0007B898C899D890E94BC0ADC01CB018E8B94
:100400009F8BA88FB98F20E030E040E85FE36E89D2
:100410007F89888D998D0E943B0A88232CF481E086
:1004200090E09B8F8A8F3EC020E03FEF4FE757E47C
:100430006E897F89888D998D0E94B80A18164CF5AF
:1004400020E030E040E251E46A897B898C899D8913
:100450000E94BC0ADC01CB01BC01CD010E943F0A15
:10046000DC01CB019B8F8A8F0FC089E190E09D8FCB
:100470008C8F8C8D9D8D0197F1F79D8F8C8F8A8D40
:100480009B8D01979B8F8A8F8A8D9B8D892B69F716
:1004900013C06E897F89888D998DF1D7DC01CB01DE
:1004A0009B8F8A8F8A8D9B8D9F8F8E8F8E8D9F8D38
:1004B0000197F1F79F8F8E8F43C089819A819C01AC
:1004C0002F5F3F4F3A8329839A87898789859A8549
:1004D000FC0184918B878B852EDF8D838D81882312
:1004E00011F08D8136C089819A819C012F5F3F4F29
:1004F0003A8329839D878C878C859D85FC01849117
:100500008E878E858B8316C089819A819C012F5F8F
:100510003F4F3A832983988B8F878F859889FC0179
:100520008491898B898907DF8D838D81882311F0E0
:100530008D810FC08B819FEF980F9B83882321F7BC
:100540008C819FEF980F9C83882309F0B6CFB2D39C
:1005500080E0A0960FB6F894DEBF0FBECDBFDF914E
:10056000CF910895CF93DF9300D01F92CDB7DEB720
:100570008FEF8B838CE3C2DE8B838B81882311F01A
:100580008B8157C081E2D7DE8B838B81882311F06A
:100590008B814FC080E0CFDE8B838B81882311F06D
:1005A0008B8147C08FE7C7DE8B838B81882311F057
:1005B0008B813FC01092C3041092C20482E2BBDE62
:1005C0008B838B81882311F08B8133C080E0B3DE75
:1005D0008B838B81882311F08B812BC087E0ABDE6E
:1005E0008B838B81882311F08B8123C01092C504EB
:1005F0001092C40480E432D38B838B81882311F062
:100600008B8117C01A8219820DC080E027D38B839B
:100610008B81882311F08B810CC089819A8101968E
:100620009A83898389819A818115944070F342D39A
:1006300080E00F900F900F90DF91CF910895CF93AE
:10064000DF9300D000D01F92CDB7DEB78A836B83D3
:100650004C832D838FEF89838CE350DE89838981DE
:10066000882311F0898140C081E265DE8983898118
:10067000882311F0898138C08A815DDE8983898170
:10068000882311F0898130C08B8155DE898389816F
:10069000882311F0898128C08A81882F90E0909367
:1006A000C3048093C20482E246DE89838981882361
:1006B00011F0898119C08C813EDE8983898188236C
:1006C00011F0898111C08D8136DE8983898188236B
:1006D00011F0898109C08C81882F90E09093C50426
:1006E0008093C404E7D280E00F900F900F900F909A
:1006F0000F90DF91CF910895CF93DF9300D000D07A
:100700001F92CDB7DEB78C836D838FEF89838FE720
:100710008A8387E08B832B814D816A818C818FDF77
:1007200089838981882311F0898101C080E00F903D
:100730000F900F900F900F90DF91CF910895CF936E
:10074000DF9300D01F92CDB7DEB78A836B838FEF24
:1007500089838A81882344F58B81873000F582E084
:1007600090E09093C3048093C2048091C40490915C
:10077000C50401969093C5048093C4048091C40479
:100780009091C504282F8091C2049091C304622FD8
:10079000B3DF89838981882311F0898106C08B8129
:1007A000873010F081E001C080E00F900F900F9033
:1007B000DF91CF910895CF93DF93CDB7DEB72E971A
:1007C0000FB6F894DEBF0FBECDBF8D876E878FEF5B
:1007D0008B8319821A828E85882F90E08F709927DB
:1007E000892B09F064C08E85882F90E0807F99273F
:1007F000892B11F080E88A838091C2049091C30410
:100800008B5F8C838091C4049091C5048D836D812E
:100810008C8195DF8B838B81882311F08B81D1C0F4
:100820008CE36CDD8B838B81882311F08B81C9C0B5
:1008300080E414D28B838B818823A9F18B81C1C082
:100840008D85882F90E09C0120523109898191E0AB
:10085000980F9983482F50E0C901880F991F880F7E
:10086000991F820F931F840F951F8C549F4F9F8356
:100870008E838E819F81FC018491888788858987FA
:1008800099858A81892BEAD18B838B81882311F00A
:100890008B8197C08091C2049091C304019690937C
:1008A000C3048093C2048981853050F277C08E855D
:1008B000882F90E08F709927019709F06FC08E857F
:1008C000882F90E0807F9927892B11F080E88A8318
:1008D0008091C2049091C304865F8C838091C4048C
:1008E0009091C5048D836D818C8129DF8B838B81F1
:1008F000882311F08B8165C08CE300DD8B838B81B5
:10090000882311F08B815DC080E4A8D18B838B811B
:10091000882309F43FC08B8154C08D85882F90E0D7
:100920009C0120523109898191E0980F9983482FC9
:1009300050E0C901880F991F880F991F820F931FDC
:10094000840F951F8C549F4F9B878A878A859B8530
:10095000FC0184918C878C85898799858A81892B74
:100960007DD18B838B81882311F08B812AC099855F
:100970008A81892B73D18B838B81882311F08B81A2
:1009800020C08091C2049091C30402969093C30446
:100990008093C2048981853008F4BFCF8A815ED1FB
:1009A0008B838B81882311F08B810BC08091C204D3
:1009B0009091C30401969093C3048093C2047AD1AA
:1009C00080E02E960FB6F894DEBF0FBECDBFDF914C
:1009D000CF910895CF93DF9300D000D0CDB7DEB78D
:1009E0009B838A836C8319820EC0898191E0980F62
:1009F0009983882F90E02A813B81820F931FFC010D
:100A000080816C81D8DE8981882F90E02A813B81AA
:100A1000820F931FFC018081882339F780E00F90BB
:100A20000F900F900F90DF91CF910895CF93DF93A8
:100A300000D01F92CDB7DEB78B8383E08A83198203
:100A400021C081E278DC813041F088E074DC8130C3
:100A500021F08FE070DC8130D1F489818F5F898350
:100A60008981882F90E0292F2F938F938BE591E038
:100A7000892F8F938BE591E08F9309D60F900F907C
:100A80000F900F9099818A819817D8F201C00000C9
:100A900099818A819817A1F48A81882F90E0292F63
:100AA0002F938F9381E991E0892F8F9381E991E0D2
:100AB0008F93EDD50F900F900F900F9081E042C073
:100AC000198221C082E237DC813041F080E033DCE2
:100AD000813021F080E02FDC8130D1F489818F5F7B
:100AE00089838981882F90E0292F2F938F9381EC20
:100AF00091E0892F8F9381EC91E08F93C8D50F906F
:100B00000F900F900F9099818A819817D8F201C0A9
:100B1000000099818A819817A1F48A81882F90E03A
:100B2000292F2F938F9385EF91E0892F8F9385EF56
:100B300091E08F93ACD50F900F900F900F9081E0C4
:100B400001C080E00F900F900F90DF91CF9108953A
:100B5000CF93DF93CDB7DEB788EB90E022E0FC01C6
:100B6000208389EB90E0FC018081882F90E08270E7
:100B70009927AC01416089EB90E029EB30E0F90165
:100B80002081322F242F232BFC0120830000DF91B2
:100B9000CF910895CF93DF93CDB7DEB789EB90E087
:100BA00029EB30E0F90120812775FC0120838CEBD3
:100BB00090E024EAFC01208300008CEB90E0FC0133
:100BC00080818823D4F789EB90E0FC018081882F15
:100BD00090E0887F9927089781F089EB90E0FC01ED
:100BE0008081882F90E0887F9927409731F089EBAA
:100BF00090E0FC018081887F01C080E0DF91CF918F
:100C00000895CF93DF931F92CDB7DEB789838BEB27
:100C100090E02981220FFC0120838CEB90E024E8F6
:100C2000FC01208300008CEB90E0FC018081882394
:100C3000D4F789EB90E0FC018081882F90E0887FD9
:100C40009927489731F089EB90E0FC018081887FFB
:100C500001C080E00F90DF91CF910895CF93DF9393
:100C60001F92CDB7DEB789838BEB90E02981FC0121
:100C700020838CEB90E024E8FC01208300008CEBC7
:100C800090E0FC0180818823D4F789EB90E0FC019F
:100C90008081882F90E0887F9927889731F089EBB1
:100CA00090E0FC018081887F01C080E00F90DF919F
:100CB000CF910895CF93DF93CDB7DEB78CEB90E063
:100CC00024E9FC0120830000DF91CF910895CF93A8
:100CD000DF9300D0CDB7DEB79A83898389819A816B
:100CE000909309058093080500000F900F90DF9105
:100CF000CF910895CF93DF9300D0CDB7DEB787E6CD
:100D000090E09A8389838CEC90E02981FC01208318
:100D10008DEC90E029813A81232F3327FC01208339
:100D200088EC90E0FC01108289EC90E028E1FC0165
:100D300020838AEC90E026E0FC01208380E091E0B3
:100D400090931105809310058EE091E090930F052C
:100D500080930E0500000F900F90DF91CF910895C2
:100D6000CF93DF93CDB7DEB789EC90E029EC30E08C
:100D7000F90120812068FC0120830000DF91CF91E0
:100D80000895CF93DF9300D0CDB7DEB79A838983E0
:100D9000000088EC90E0FC0180818823D4F78EEC81
:100DA00090E0FC018081882F90E00F900F90DF9100
:100DB000CF910895CF93DF9300D01F92CDB7DEB7C8
:100DC00089837B836A83000088EC90E0FC0180814A
:100DD000882F90E080729927892BB1F38EEC90E0F8
:100DE0002981FC01208380E090E00F900F900F900C
:100DF000DF91CF910895CF93DF9300D000D0CDB78E
:100E0000DEB79B838A836C838A819B81805C9F4F42
:100E1000FC018081882F90E001968F739078992350
:100E200024F40197806C9F6F019689838A819B814E
:100E30008F5B9F4FFC01908189819817B1F18A8166
:100E40009B81805C9F4FFC018081882F90E02A81EC
:100E50003B81820F931F2C81FC0120838A819B811F
:100E6000805C9F4F2981FC0120838A819B81805C6B
:100E70009F4FFC018081282F30E08C81882F90E0EB
:100E8000432F4F932F93292F2F938F9383E292E039
:100E9000892F8F9383E292E08F93F9D30F900F9075
:100EA0000F900F900F900F9012C08C81882F90E0C0
:100EB000292F2F938F9387E492E0892F8F9387E4D4
:100EC00092E08F93E4D30F900F900F900F9000005B
:100ED0000F900F900F900F90DF91CF910895CF93C7
:100EE000DF9300D000D0CDB7DEB79A8389837C83AF
:100EF0006B8389819A81805C9F4FFC01208189816D
:100F00009A818F5B9F4FFC018081281731F485E720
:100F100092E0D0D38FEF9FEF4EC089819A818F5B93
:100F20009F4FFC018081882F90E029813A81820FB8
:100F3000931FFC0120818B819C81FC01208389818E
:100F40009A818F5B9F4FFC018081282F30E08B813D
:100F50009C81FC018081882F90E0432F4F932F9339
:100F6000292F2F938F9381E992E0892F8F9381E925
:100F700092E08F938CD30F900F900F900F900F9063
:100F80000F9089819A818F5B9F4FFC018081882F10
:100F900090E001968F739078992324F40197806CE8
:100FA0009F6F0196282F89819A818F5B9F4FFC014B
:100FB000208380E090E00F900F900F900F90DF91D2
:100FC000CF910895CF93DF9300D0CDB7DEB79A834A
:100FD000898389819A81805C9F4FFC01208189816E
:100FE0009A818F5B9F4FFC0180812817A8F089812F
:100FF0009A81805C9F4FFC018081282F30E089819D
:101000009A818F5B9F4FFC018081882F90E0A9011E
:10101000481B590BCA0116C089819A818F5B9F4F6B
:10102000FC018081882F90E020E430E0281B390B00
:1010300089819A81805C9F4FFC018081882F90E09C
:10104000820F931F0F900F90DF91CF910895CF9350
:10105000DF9300D000D0CDB7DEB79C838B838AEBC3
:1010600092E0892F8F938AEB92E08F9310D30F90A9
:101070000F901A8219821EC02B813C8189819A812E
:10108000820F931FFC018081882F90E0292F2F93DE
:101090008F938CEC92E0892F8F938CEC92E08F935E
:1010A000F6D20F900F900F900F9089819A81019640
:1010B0009A83898389819A8180349105ECF28B81AE
:1010C0009C818F5B9F4FFC018081282F30E08B81BA
:1010D0009C81805C9F4FFC018081882F90E0432F92
:1010E0004F932F93292F2F938F9380ED92E0892F89
:1010F0008F9380ED92E08F93CAD20F900F900F9054
:101100000F900F900F9000000F900F900F900F9086
:10111000DF91CF9108951F920F9200905F000F9280
:1011200011242F933F934F935F936F937F938F93EC
:101130009F93AF93BF93EF93FF93CF93DF931F9250
:10114000CDB7DEB78EEC90E0FC01808189836981A8
:1011500086EC94E050DE8091080590910905892B7A
:1011600039F020910805309109058981F901099527
:101170008981882F90E0292F2F938F9385EE92E01D
:10118000892F8F9385EE92E08F9381D20F900F90ED
:101190000F900F9000000F90DF91CF91FF91EF9192
:1011A000BF91AF919F918F917F916F915F914F917F
:1011B0003F912F910F9000925F000F901F90189514
:1011C000CF93DF931F92CDB7DEB789838981809358
:1011D0000A0581E080930B0500000F90DF91CF910D
:1011E0000895CF93DF931F92CDB7DEB789838981AE
:1011F000882F90E0292F2F938F938AE093E0892FF7
:101200008F938AE093E08F9342D20F900F900F90CC
:101210000F9080910D05873050F580910D05882F36
:1012200090E0835E9E4F2981FC01208380910D0513
:101230008F5F80930D0580910D05882F90E0835E70
:101240009E4FFC0110828DE191E0892F8F938DE1FB
:1012500091E08F9389E293E0892F8F9389E293E065
:101260008F9315D20F900F900F900F9005C080E4D0
:1012700093E020D210920D0582E693E01BD272D942
:1012800060E080E039DA60E08DE191E0A3DB8091FD
:101290001C01CCDB813021F481E893E00BD203C048
:1012A00089E993E007D28DE191E0892F8F938DE159
:1012B00091E08F9387EB93E0892F8F9387EB93E0F7
:1012C0008F93E5D10F900F900F900F9080910C05A8
:1012D000882F90E0292F2F938F938FEC93E0892F05
:1012E0008F938FEC93E08F93D2D10F900F900F904C
:1012F0000F9000000F90DF91CF910895CF93DF936F
:1013000000D01F92CDB7DEB786EC94E05BDE898318
:101310008981882F90E0292F2F938F9387EE93E078
:10132000892F8F9387EE93E08F93B1D10F900F9019
:101330000F900F908981882391F1CE010396BC0113
:1013400086EC94E0CCDD8A838A818823A9F48B81A2
:10135000882F90E0292F2F938F938DE194E0892F90
:101360008F938DE194E08F9392D10F900F900F9017
:101370000F908B8136DF16C08A81882F90E0292F4D
:101380002F938F9382E494E0892F8F9382E494E0EB
:101390008F937DD10F900F900F900F9003C089E62F
:1013A00094E088D186EC94E052DE00000F900F901C
:1013B0000F90DF91CF910895CF93DF931F92CDB718
:1013C000DEB798DC80EE98E082DC8CE3898389814B
:1013D0000E94B901C7D860E087E08ED960E08AE852
:1013E00094E0F8DA898122DB61E087E085D960E06A
:1013F00081E994E0EFDA898119DB62E087E07CD94A
:1014000060E088E994E0E6DA898110DB63E087E058
:1014100073D960E08FE994E0DDDA898107DB64E06D
:1014200087E06AD960E086EA94E0D4DA8981FEDA5E
:1014300065E087E061D960E08DEA94E0CBDA8981EC
:10144000F5DA66E087E058D960E084EB94E0C2DA30
:101450008981ECDA67E087E04FD960E08BEB94E0BC
:10146000B9DA8981E3DA7CDC78941092060510926F
:10147000070544DFFECF2FD008F481E0089557D050
:1014800088F09F5790F0B92F9927B751A0F0D1F06D
:10149000660F771F881F991F1AF0BA95C9F712C0F7
:1014A000B13081F05ED0B1E008955BC0672F782F36
:1014B0008827B85F39F0B93FCCF386957795679563
:1014C000B395D9F73EF490958095709561957F4FCF
:1014D0008F4F9F4F0895990F0008550FAA0BE0E812
:1014E000FEEF16161706E807F907C0F012161306E6
:1014F000E407F50798F0621B730B840B950B39F426
:101500000A2661F0232B242B252B21F408950A268B
:1015100009F4A140A6958FEF811D811D089557FD07
:101520009058440F551F59F05F3F71F04795880F51
:1015300097FB991F61F09F3F79F0879508951216E8
:1015400013061406551FF2CF4695F1DF08C0161694
:1015500017061806991FF1CF869571056105089445
:101560000895E894BB2766277727CB0197F908955C
:10157000B2DF08F48FEF08950BD078C069D028F05F
:101580006ED018F0952309F05AC05FC01124EACF3D
:10159000C6DFA0F3959FD1F3950F50E0551F629FD2
:1015A000F001729FBB27F00DB11D639FAA27F00DBC
:1015B000B11DAA1F649F6627B00DA11D661F829FE3
:1015C0002227B00DA11D621F739FB00DA11D621FC8
:1015D000839FA00D611D221F749F3327A00D611DE5
:1015E000231F849F600D211D822F762F6A2F1124C7
:1015F0009F5750408AF0E1F088234AF0EE0FFF1F1A
:10160000BB1F661F771F881F91505040A9F79E3F50
:10161000510570F014C0A6CF5F3FECF3983EDCF3A9
:10162000869577956795B795F795E7959F5FC1F78D
:10163000FE2B880F911D9695879597F9089597F938
:101640009F6780E870E060E008959FEF80EC089568
:1016500000240A9416161706180609060895002491
:101660000A9412161306140605060895092E03940B
:10167000000C11F4882352F0BB0F40F4BF2B11F47F
:1016800060FF04C06F5F7F4F8F4F9F4F0895A0E0B2
:10169000B0E0ECE4FBE0D0C2AE014B5F5F4FFA017B
:1016A00061917191AF01809110059091110532D037
:1016B000E2E0DEC20F931F93CF93DF93E09110051A
:1016C000F0911105238121FF1BC08C01D0E0C0E007
:1016D000F80181918F016091100570911105DB0176
:1016E0001896ED91FC911997882331F00995892B73
:1016F00079F3DFEFCFEFECCF8AE00995892B19F072
:101700008FEF9FEF02C08D2F9C2FDF91CF911F9104
:101710000F910895ABE0B0E0EFE8FBE07DC26C0113
:101720007B018A01FC0117821682838181FFBFC180
:10173000CE0101963C01F6019381F70193FD85915D
:1017400093FF81917F01882309F4ADC1853239F47B
:1017500093FD859193FF81917F01853221F4B6013C
:1017600090E0C0D1E8CF912C212C312CFFE1F31572
:10177000D8F08B3279F038F4803279F08332A1F4EA
:10178000232D20611DC08D3261F0803369F4232D3B
:10179000216016C0832D8260382EE32DE4603E2E3A
:1017A0002AC0F32DF8601DC037FC2DC020ED280F96
:1017B0002A3040F08E32B9F436FC75C1232D2064F6
:1017C000322E19C036FE06C08AE0989E200D1124E4
:1017D000922E11C0EAE02E9E200D1124222EF32D10
:1017E000F0623F2E08C08C3621F4832D8068382E9D
:1017F00002C0883641F4F70193FD859193FF8191F2
:101800007F018111B3CF982F9F7D9554933028F499
:101810000C5F1F4F9FE399830DC0833631F08337F0
:1018200071F0833509F055C020C0F80180818983AB
:101830000E5F1F4F88248394912C530112C02801FE
:10184000F2E04F0E511CF801A080B18036FE03C0BB
:10185000692D70E002C06FEF7FEFC50138D14C01F8
:101860008201F32DFF773F2E15C0280122E0420EA2
:10187000511CF801A080B18036FE03C0692D70E0D4
:1018800002C06FEF7FEFC50117D14C01F32DF06857
:101890003F2E820133FC19C0822D90E088169906F4
:1018A000A0F4B60180E290E01DD12A94F5CFF501B5
:1018B00037FC859137FE81915F01B60190E012D12E
:1018C00021102A9421E0821A91088114910479F759
:1018D000E1C0843611F0893639F5F80137FE07C0CA
:1018E00060817181828193810C5F1F4F08C060818C
:1018F0007181072E000C880B990B0E5F1F4FF32D83
:10190000FF763F2E97FF09C0909580957095619561
:101910007F4F8F4F9F4FF0683F2E2AE030E0A301AA
:101920001DD1882E861844C0853731F4232D2F7E93
:10193000B22E2AE030E025C0932D997FB92E8F3644
:10194000C1F018F4883579F0AEC0803719F08837C7
:1019500021F0A9C0E92FE061BE2EB4FE0DC0FB2D21
:10196000F460BF2E09C034FE0AC0292F2660B22EB3
:1019700006C028E030E005C020E130E002C020E1F0
:1019800032E0F801B7FE07C06081718182819381E6
:101990000C5F1F4F06C06081718180E090E00E5F98
:1019A0001F4FA301DBD0882E8618FB2DFF773F2E1B
:1019B00036FE0DC0232D2E7FA22E891458F434FE3E
:1019C0000BC032FC09C0832D8E7EA82E05C0B82C1A
:1019D000A32C03C0B82C01C0B92CA4FE0FC0FE017B
:1019E000E80DF11D8081803321F49A2D997EA92E76
:1019F00009C0A2FE06C0B394B39404C08A2D8678B1
:101A000009F0B394A3FC10C0A0FE06C0B21480F489
:101A1000280C922C9B180DC0B21458F4B60180E229
:101A200090E060D0B394F8CFB21418F42B1802C031
:101A3000982C212CA4FE0FC0B60180E390E052D078
:101A4000A2FE16C0A1FC03C088E790E002C088E5B2
:101A500090E0B6010CC08A2D867851F0A1FE02C03C
:101A60008BE201C080E2A7FC8DE2B60190E03AD0A3
:101A7000891430F4B60180E390E034D09A94F8CF22
:101A80008A94F301E80DF11D8081B60190E02AD01F
:101A90008110F6CF222009F44ECEB60180E290E00C
:101AA00021D02A94F7CFF6018681978102C08FEF6B
:101AB0009FEF2B96E2E1CCC0FC0105906150704095
:101AC0000110D8F7809590958E0F9F1F0895FC0107
:101AD0006150704001900110D8F7809590958E0F5D
:101AE0009F1F08950F931F93CF93DF93FB012381D3
:101AF00021FD03C08FEF9FEF2CC022FF16C046814F
:101B00005781248135814217530744F4A081B18164
:101B10009D012F5F3F4F318320838C932681378136
:101B20002F5F3F4F3783268314C08B01EC01FB01ED
:101B30000084F185E02D0995892BE1F6D8011696F0
:101B40008D919C911797019617969C938E9316975B
:101B5000CE01DF91CF911F910F910895FA01AA272D
:101B6000283051F1203181F1E8946F936E7F6E5FE0
:101B70007F4F8F4F9F4FAF4FB1E03ED0B4E03CD08E
:101B8000670F781F891F9A1FA11D680F791F8A1F71
:101B9000911DA11D6A0F711D811D911DA11D20D0D8
:101BA00009F468943F912AE0269F11243019305D92
:101BB0003193DEF6CF010895462F4770405D419383
:101BC000B3E00FD0C9F7F6CF462F4F70405D4A33D0
:101BD00018F0495D31FD4052419302D0A9F7EACF98
:101BE000B4E0A6959795879577956795BA95C9F7C7
:101BF00000976105710508959B01AC010A2E0694BA
:101C00005795479537952795BA95C9F7620F731F72
:101C1000841F951FA01D08952F923F924F925F92AF
:101C20006F927F928F929F92AF92BF92CF92DF92EC
:101C3000EF92FF920F931F93CF93DF93CDB7DEB751
:101C4000CA1BDB0B0FB6F894DEBF0FBECDBF0994E5
:101C50002A88398848885F846E847D848C849B843C
:101C6000AA84B984C884DF80EE80FD800C811B814A
:101C7000AA81B981CE0FD11D0FB6F894DEBF0FBE79
:0A1C8000CDBFED010895F894FFCFE9
:101C8A000000000200000000DA0600000000000068
:101C9A000001000000000000C10600003C30000006
:101CAA0000000000004572726F722073656E6469ED
:101CBA006E6720636F6D6D616E64203078253032F7
:101CCA00582C207265747279696E672E2E2E204107
:101CDA007474656D70742025640A004572726F729F
:101CEA002073657474696E6720636F6C756D6E20FE
:101CFA00616464726573732C207265747279696E9B
:101D0A00672E2E2E20417474656D70742025640A26
:101D1A00004661696C656420746F20736574206382
:101D2A006F6C756D6E206164647265737320616691
:101D3A0074657220256420726574726965732E0A4F
:101D4A00004572726F722073657474696E672070D1
:101D5A0061676520616464726573732C20726574AF
:101D6A007279696E672E2E2E20417474656D7074B7
:101D7A002025640A004661696C656420746F2073CB
:101D8A00657420706167652061646472657373208D
:101D9A006166746572202564207265747269657360
:101DAA002E0A004275666665725075743A2053743D
:101DBA006F726564202725632720617420696E6429
:101DCA0065782025640A00427566666572507574E6
:101DDA003A204275666665722069732066756C6C76
:101DEA002C2063616E6E6F742073746F7265202786
:101DFA002563270A004275666665724765743A204C
:101E0A0042756666657220697320656D7074792102
:101E1A00004275666665724765743A205265747247
:101E2A00696576656420272563272066726F6D20B1
:101E3A00696E6465782025640A0042756666657273
:101E4A0020436F6E74656E74733A20002563200018
:101E5A000A486561643A2025642C205461696C3A09
:101E6A002025640A00526563697665644368617275
:101E7A003A202563200A0030313233343536373878
:101E8A0039414243444546000A0052656365697612
:101E9A00656443686172616374657246726F6D55F9
:101EAA004152543A2025630A00537472696E6720BE
:101EBA007570646174656420746F3A2025730A0032
:101ECA00537472696E6720696E646578206F7665EF
:101EDA0072666C6F772120526573657474696E67D8
:101EEA002E00507265706172696E6720746F20757A
:101EFA00706461746520646973706C61792E2E2E2A
:101F0A00004572726F72207570646174696E672021
:101F1A00646973706C61792E00446973706C6179BD
:101F2A002075706461746564207375636365737387
:101F3A0066756C6C792E0057726974696E672074C5
:101F4A006F20646973706C61793A2025730A0044C2
:101F5A006973706C61794C696E65436F756E7465EF
:101F6A00723A2025640A0050726F63657373526572
:101F7A0063656976656443686172616374657273E7
:101F8A003A20554152545F427566666572417661E0
:101F9A00696C61626C65203D2025640A0053756393
:101FAA006365737366756C6C7920726563656976AF
:101FBA006564206368617261637465723A2025639F
:101FCA000A004572726F722072656164696E6720D9
:101FDA0066726F6D206275666665722C2073746115
:101FEA007475733A2025640A004275666665722024
:101FFA00697320656D7074792C206E6F742070720D
:10200A006F63657373696E672E004C696E65203164
:10201A00004C696E652032004C696E652033004CB5
:10202A00696E652034004C696E652035004C696E16
:10203A00652036004C696E652037004C696E652054
:02204A0038005C
:00000001FF
