:1000000071C000008EC000008CC000008AC00000DB
:1000100088C0000086C0000084C0000082C00000CC
:1000200080C000007EC000007CC000007AC00000DC
:1000300078C0000076C0000074C0000072C00000EC
:1000400070C000006EC000006CC000006AC00000FC
:1000500068C0000066C0000064C0000062C000000C
:1000600060C000005EC000005CC000005AC000001C
:1000700058C0000056C0000054C0000052C000002C
:1000800050C000004EC000004CC000004AC000003C
:1000900048C0000046C0000044C0000042C000004C
:1000A00040C000003EC000003CC000003AC000005C
:1000B00038C0000036C0000034C0000032C000006C
:1000C00030C000002EC000002CC000002AC000007C
:1000D00028C0000026C0000024C0000022C000008C
:1000E00020C0000011241FBECFEFD1E2DEBFCDBF84
:1000F00000E00CBF12E0A0E0B2E0E8EAF2E000E0CD
:100100000BBF02C007900D92AE30B107D9F722E0C5
:10011000AEE0B2E001C01D92A431B207E1F73CD0DD
:10012000C1C06ECFCF93DF9300D0CDB7DEB78A8347
:100130006B838A8189838B818A8389818B83000089
:100140000F900F900F90DF91CF910895CF93DF9391
:1001500000D01F921F92CDB7DEB79B838A837D8329
:100160006C838A819B81FC01808189838C819D8144
:10017000FC0120818A819B81FC0120838C819D81EF
:100180002981FC01208300000F900F900F900F90A9
:100190000F90DF91CF910895CF93DF93CDB7DEB766
:1001A00027970FB6F894DEBF0FBECDBF8AE08E83CF
:1001B00084E18F8329D09F818E81692FB3DF9E01D7
:1001C000295F3F4FCE010696B901C0DF84E290E07F
:1001D0009A8389838FEF8B8389819A819D838C8316
:1001E0008C819D812B81FC01208389819A810196DC
:1001F0009A83898389819A819D838C838C819D8157
:100200002B81FC012083FFCFCF93DF93CDB7DEB7E7
:1002100084EC90E027E6FC01208385EC90E0FC0173
:10022000108280EC90E0FC01108281EC90E028E1EB
:10023000FC01208382EC90E026E0FC01208304D0C6
:100240000000DF91CF910895CF93DF93CDB7DEB754
:1002500080E092E090931102809310020000DF9101
:10026000CF910895CF93DF9300D0CDB7DEB78983C8
:100270007B836A83000080EC90E0FC018081882F02
:1002800090E080729927892BB1F386EC90E0298168
:10029000FC01208380E090E00F900F900F90DF91A1
:0802A000CF910895F894FFCFFF
:0E02A800000000020000000032010000000013
:00000001FF
