S02B0000556172745F416E645F54696D65725F496E746572727570745F43616C6C6261636B5F454570726F6D27
S11300000C9463010C9480010C9480010C94800185
S11300100C9480010C9480010C9480010C94800158
S11300200C9480010C9480010C9480010C94800148
S11300300C9480010C9480010C9480010C94800138
S11300400C9449050C9480010C9480010C9480015B
S11300500C9480010C9480010C9480010C94800118
S11300600C9480010C9480010C9480010C94800108
S11300700C94CE050C9480010C9480010C948001A6
S11300800C9480010C9480010C9480010C948001E8
S11300900C9480010C9480010C9480010C948001D8
S11300A00C9480010C9480010C9480010C948001C8
S11300B00C9480011200AE013F3F01200002210098
S11300C07F02220007004001D30000A100C80112F2
S11300D01201817F00A400A601D58001D9C201DBF1
S11300E020018D1400AF000000000081811881817F
S11300F00007000700147F147F14242A7F2A122388
S11301001308646236495522500005030000001CA0
S11301102241000041221C0014083E081408083E35
S11301200808005030000008080808080060600053
S11301300020100804023E5149453E00427F400021
S113014042615149462141454B311814127F102711
S1130150454545393C4A4949300171090503364949
S1130160494936064949291E0036360000005636EC
S11301700000081422410014141414140041221421
S1130180080201510906324979413E7E1111117E5E
S11301907F494949363E414141227F4141221C7FEA
S11301A0494949417F090909013E4149497A7F0882
S11301B008087F00417F41002040413F017F08142F
S11301C022417F404040407F020C027F7F040810A0
S11301D07F3E4141413E7F090909063E4151215E6E
S11301E07F09192946464949493101017F01013FE7
S11301F04040403F1F2040201F3F4038403F631491
S113020008146307087008076151494543007F419A
S1130210410002040810200041417F000402010251
S113022004404040404000010204002054545478EB
S11302307F484444383844444420384444487F3850
S113024054545418087E0901020C5252523E7F083D
S113025004047800447D40002040443D007F102881
S1130260440000417F40007C041804787C080404A6
S11302707838444444387C14141408081414147C46
S11302807C080404084854545420043F4440203C4F
S11302904040207C1C2040201C3C4030403C4428F2
S11302A01028440C5050503C4464544C44000836CC
S11302B0410000007F0000004136080010080810CB
S11302C008000000000011241FBECFEFD8E0DEBFFD
S11302D0CDBF11E0A0E0B1E0EEE1F5E102C0059090
S11302E00D92A03DB107D9F725E0A0EDB1E001C022
S11302F01D92A63FB207E1F70E940E040C948D0AEA
S11303000C9400000E94220A08950E94360A08955F
S1130310CF93C82F0E944603811103C08C2F0E94E3
S11303206403CF910895CF93C82F80E80E94790386
S1130330811103C08C2F0E947903CF910895CF922D
S1130340DF92EF92FF920F931F93CF93DF93C82F07
S1130350E4EBF0E0E491EE2EF12C0E943A038C2FB2
S11303600E948801811126C0C5EBD0E01DC0FE01AA
S113037014913196849122960E949301882369F006
S113038019C06E01FFEFCF1ADF0AFE0184910E94AB
S11303909301102F81110EC0E6010FEF010F11110F
S11303A0F0CFF1E0EF1AF108E114F10401F70E9433
S11303B08D0380E0DF91CF911F910F91FF90EF901B
S11303C0DF90CF900895CF93DF930E94880181112D
S11303D018C080E40E947903811113C0C0E0D0E00A
S11303E009C0FE01E053FE4F80810E947903811110
S11303F008C02196C11584E0D80798F30E948D03A4
S113040080E0DF91CF91089580E094E0E0EDF1E0A9
S1130410DF019C011D9221503040E1F7089590E0E6
S113042020E8629F800D911D11249093E305809331
S1130430E20508958091E2059091E3059C01220F65
S1130440232F221F330B3195922F97959927979538
S1130450891B8A5F7AF4283078F4263078F42F5F89
S113046080E8289F900111243093E3052093E2054E
S113047080E0089580E0089581E0089580E0089583
S1130480CF93C82F0E941A02813071F140E020C03E
S11304902091E2053091E305C90101969093E305AB
S11304A08093E2058C2F90E0809751E0540FFC017B
S11304B0EE0FFF1FEE0FFF1FE80FF91FE40FF11DF2
S11304C0EA51FF4FE491D901A053BE4FEC93452F5D
S11304D04530F0F28091E2059091E3050196909306
S11304E0E3058093E20580E0CF9108950F931F9375
S11304F0CF93DF938C01C0E0D0E003C021960E942B
S11305004002F801EC0FFD1F80818111F7CFDF91CC
S1130510CF911F910F910895882364F1613460F5A0
S1130520E62FE695E695E695F0E09F01220F331F4E
S1130530220F331F220F331F70E0621B730B21E065
S113054030E002C0220F331F6A95E2F7F695FE2FC2
S1130550EE27F795E795E80FF11DCF0101969093EB
S1130560E3058093E205E053FE4F8081282B20832E
S113057080E0089581E0089581E008958F929F922C
S1130580AF92BF92CF92DF92EF92FF920F931F939D
S1130590CF93DF93D82F962EC42FA22EE62EF12CC4
S11305A0E81AF108C22ED12CC41AD108FF2034F461
S11305B0F194E194F10888248A9402C088248394F5
S11305C0DD2034F4D194C194D108BB24BA9402C080
S11305D0BB24B394CE14DF04FCF48601000F111F76
S11305E00E191F096C2F8D2F0E948C0212C0D80D7A
S11305F0112334F0CB0DC701880F991F081B190B69
S1130600C601880F991F080F191F6C2F8D2F0E9488
S11306108C02D911ECCF20C0C701880F991F860125
S1130620081B190B6C2F8D2F0E948C0213C0CB0D4D
S11306301016110634F0D80DC601880F991F080F43
S1130640191FC701880F991F081B190B6C2F8D2FB9
S11306500E948C02CA11EBCF80E0DF91CF911F91F1
S11306600F91FF90EF90DF90CF90BF90AF909F904D
S11306708F90089582E08093B800E9EBF0E08081E8
S1130680908182708160892B80830895E9EBF0E08A
S113069080818775808384EA8093BC008091BC004C
S11306A08823E4F78091B900887F883049F08091ED
S11306B0B900887F803131F08091B900887F089536
S11306C080E0089580E00895880F8093BB0084E85B
S11306D08093BC008091BC008823E4F78091B9002A
S11306E0887F883121F08091B900887F089580E067
S11306F008958093BB0084E88093BC008091BC0083
S11307008823E4F78091B900887F883221F08091B2
S1130710B900887F089580E0089584E98093BC003F
S113072008956093D1057093D2058093D305909377
S1130730D40581E08093D00508950F931F93CF9340
S1130740DF9300D000D000D0CDB7DEB7DC014C91F0
S1130750242F30E0205331092A30310570F4E09120
S1130760D705E53050F421E02E0F2093D705F0E0B3
S11307708C91EC51FA4F808339C04A3381F5009152
S1130780D70510E0A80164EE75E0CE0101960E9441
S11307903707E1E0F0E0EC0FFD1FE00FF11F1082DE
S11307A04AE050E060E070E0CE0101960E94390614
S11307B09B017093ED056093EC051092D70580E0E2
S11307C006C0E82FF0E0EC51FA4F10828F5F8530BD
S11307D0C0F3232B59F081E08093D50507C021E0B5
S11307E02093D605FC0180818093EB0526960FB6F5
S11307F0F894DEBF0FBECDBFDF91CF911F910F9153
S113080008959C01A4EDB3E00E942A0628EE33E08B
S113081040E050E00E940806C9010895CF93DF9399
S1130820CDB7DEB728970FB6F894DEBF0FBECDBFA5
S113083084B1866084B90F2EF0E0EF2EF0E0FF2E35
S1130840F02DC7010E9482019093ED058093EC0581
S113085001978E3F9F4F30F088EE93E09093ED0523
S11308608093EC058091EC059091ED050E940104C4
S11308709093EA058093E9050E94B00561E973E06D
S11308808091E9059091EA050E9418050E943505BA
S11308900E94C8058091ED058F938091EC058F939C
S11308A08CE191E09F938F930E9446078CE30E9412
S11308B09F010E94040224E044E06AE580E00E9473
S11308C0BE0261E087E00E940F0281E491E00E9491
S11308D076028CE30E94E30178940F900F900F90BE
S11308E00F908091D605882381F01092D6058091CF
S11308F0EB051F928F938CE491E09F938F930E945A
S113090046070F900F900F900F908091D505882384
S113091069F11092D5058091ED058F938091EC05D6
S11309208F9383E891E09F938F930E9446070091F1
S1130930EC051091ED05C8010E9401049093EA05AD
S11309408093E905B801C7010E9485010E9443050F
S113095061E973E08091E9059091EA050E94180528
S11309600E9435050F900F900F900F908091D00545
S1130970882309F4B6CF1092D0058091D1059091C7
S1130980D205A091D305B091D405BF93AF939F93A3
S11309908F938CEA91E09F938F930E9446078091F6
S11309A0D1059091D205A091D305B091D405BF9300
S11309B0AF939F938F9381EB91E09F938F938E01DD
S11309C00F5F1F4F1F930F930E945C0763E080E04B
S11309D00E940F0284EB91E00E947602C8010E94FB
S11309E076028CE30E94E3010FB6F894DEBF0FBEDB
S11309F0CDBF77CFBC0190E0292F30E0F901EE0F95
S1130A00FF1FEE0FFF1FE554FE4F40815181461733
S1130A10570749F4220F331F220F331FF901E554FE
S1130A20FE4F828108959F5F953030F381E00895F1
S1130A300F931F93CF93DF938C01EB0116BC14BC6F
S1130A4015BA80E490E00E94FA0495B5892B85BD1F
S1130A501093E1050093E005D093DD05C093DC0518
S1130A60DF91CF911F910F910895EEE6F0E0808120
S1130A70816080831092D8051092D9051092DA050E
S1130A801092DB050895EEE6F0E080818E7F80838E
S1130A9008951F920F920FB60F9211242F933F9334
S1130AA04F935F936F937F938F939F93AF93BF9372
S1130AB0EF93FF938091DE059091DF05019690936B
S1130AC0DF058093DE052091E0053091E105821772
S1130AD0930718F195B186E0892785B91092DF054F
S1130AE01092DE058091D8059091D905A091DA0580
S1130AF0B091DB05BC01CD016F5F7F4F8F4F9F4FDE
S1130B006093D8057093D9058093DA059093DB053B
S1130B10E091DC05F091DD0509957894FF91EF9162
S1130B20BF91AF919F918F917F916F915F914F9101
S1130B303F912F910F900FBE0F901F9018958091A9
S1130B40C8008823E4F78091CE0090E00895909146
S1130B50C80095FFFCCF8093CE0080E090E008951C
S1130B6087E68093CC001092CD001092C80088E1F3
S1130B708093C90086E08093CA00EEEEF5E08EE033
S1130B8091E09383828380E091E091838083089550
S1130B90E9ECF0E080818068808308951F920F92D1
S1130BA00FB60F9211240F931F932F933F934F93DC
S1130BB05F936F937F938F939F93AF93BF93EF93C1
S1130BC0FF93CF93DF931F92CDB7DEB70EEC10E007
S1130BD0F80180818983CE0101960E949D03898159
S1130BE0F80180830F90DF91CF91FF91EF91BF9136
S1130BF0AF919F918F917F916F915F914F913F91B1
S1130C002F911F910F910F900FBE0F901F90189569
S1130C10A1E21A2EAA1BBB1BFD010DC0AA1FBB1FFC
S1130C20EE1FFF1FA217B307E407F50720F0A21B6E
S1130C30B30BE40BF50B661F771F881F991F1A94DB
S1130C4069F760957095809590959B01AC01BD0105
S1130C50CF010895A29FB001B39FC001A39F700D5F
S1130C60811D1124911DB29F700D811D1124911DB0
S1130C700895A0E0B0E0EFE3F6E00C94570A5C01BD
S1130C806B017A016115710519F0FB019183808371
S1130C90E114F10429F0C7010297839708F0C9C051
S1130CA0E5012196F5011081812F90E00E942E0725
S1130CB0892B11F05E01F4CF1D3229F42196F50140
S1130CC0118101E007C01B3221F4E5012296F501F0
S1130CD0118100E0E114F104B1F0F0E1EF16F10448
S1130CE029F4B0C010E3E114F10401F12AE0E216A2
S1130CF0F104B1F180E1E816F10471F0E8E0EE16D8
S1130D00F104F1F413C0103341F588818F7D8835E7
S1130D1049F7198122960260F0E1EF2EF12C882424
S1130D208A94982CA82CAFE0BA2E20C078E0E72E45
S1130D30F12C88248A94982CA82CEFE1BE2E16C09E
S1130D406FEF7FEFCB0197010F2C000C440B550B79
S1130D500E94080649015A0109C08AE0E82EF12CD4
S1130D6069E9862E982CA82C69E1B62E40E060E053
S1130D7070E0CB0127010F2C000C66087708FE01F8
S1130D8050ED352E310E29E0231570F42FEB210F91
S1130D902A3118F439EC332E06C02FE9210F2A31F9
S1130DA030F529EA322E310E232D30E02E153F0581
S1130DB0F4F44F3FC9F086169706A806B90688F0E2
S1130DC0A30192010E943B0A232D30E040E050E051
S1130DD0620F731F841F951F62177307840795079B
S1130DE010F44FEF01C041E021961081C8CFC11427
S1130DF0D10451F0442311F0219703C001FF04C032
S1130E002297F601D183C08300FF07C09095809597
S1130E10709561957F4F8F4F9F4F4F3F79F482E2DA
S1130E2090E09093F5058093F4053FEF2FEF9FEF4B
S1130E300DC040E030E020E090E008C0462F372F9E
S1130E40282F04C0103309F067CF5FCF642F732FAE
S1130E50822FCDB7DEB7E1E10C94730A91110C94A3
S1130E605F09803219F089508550C8F70895FB0155
S1130E70DC014150504048F001900D920020C9F728
S1130E8001C01D9241505040E0F70895A0E0B0E049
S1130E90ECE4F7E00C94660AAE014B5F5F4FFA0195
S1130EA061917191AF018091F0059091F1050E94DB
S1130EB07E07E2E00C94820AAEE0B0E0E2E6F7E0FE
S1130EC00C94640A0D891E8986E08C831A83098335
S1130ED08FEF9FE79E838D83AE01475E5F4F6F89DF
S1130EE0788DCE0101960E947E07EF81F885E00F90
S1130EF0F11F10822E96E4E00C94800AABE0B0E07F
S1130F00E4E8F7E00C94560A6C017B018A01FC01C9
S1130F1017821682838181FFCCC1CE0101963C01E8
S1130F20F6019381F70193FD859193FF81917F01F0
S1130F30882309F4BAC1853239F493FD859193FF6E
S1130F4081917F01853229F4B60190E00E947809ED
S1130F50E7CF912C212C312CFFE1F315D8F08B3203
S1130F6079F038F4803279F08332A1F4232D2061B2
S1130F701DC08D3261F0803369F4232D216016C0C9
S1130F80832D8260382EE32DE4603E2E2AC0F32D9B
S1130F90F8601DC037FC2DC020ED280F2A3040F02A
S1130FA08E32B9F436FC81C1232D2064322E19C04F
S1130FB036FE06C08AE0989E200D1124922E11C0A0
S1130FC0EAE02E9E200D1124222EF32DF0623F2EF6
S1130FD008C08C3621F4832D8068382E02C08836F0
S1130FE041F4F70193FD859193FF81917F01811174
S1130FF0B3CF982F9F7D9554933028F40C5F1F4FE7
S11310009FE399830DC0833631F0833771F08335C4
S113101009F059C021C0F801808189830E5F1F4FF8
S113102088248394912C530113C02801F2E04F0EBD
S1131030511CF801A080B18036FE03C0692D70E018
S113104002C06FEF7FEFC5010E946D094C01820160
S1131050F32DFF773F2E16C0280122E0420E511CCB
S1131060F801A080B18036FE03C0692D70E002C093
S11310706FEF7FEFC5010E9462094C01F32DF06808
S11310803F2E820133FC1BC0822D90E08816990606
S1131090B0F4B60180E290E00E9478092A94F4CF7B
S11310A0F50137FC859137FE81915F01B60190E02F
S11310B00E94780921102A9421E0821A910881144F
S11310C0910471F7E8C0843611F0893641F5F801CE
S11310D037FE07C060817181828193810C5F1F4F4D
S11310E008C060817181072E000C880B990B0E5F7C
S11310F01F4FF32DFF763F2E97FF09C090958095E3
S1131100709561957F4F8F4F9F4FF0683F2E2AE077
S113111030E0A3010E94B409882E861845C08537A3
S113112031F4232D2F7EB22E2AE030E025C0932DFA
S1131130997FB92E8F36C1F018F4883579F0B5C08F
S1131140803719F0883721F0B0C0E92FE061BE2E56
S1131150B4FE0DC0FB2DF460BF2E09C034FE0AC0DE
S1131160292F2660B22E06C028E030E005C020E119
S113117030E002C020E132E0F801B7FE07C0608130
S11311807181828193810C5F1F4F06C060817181E0
S113119080E090E00E5F1F4FA3010E94B409882EE7
S11311A08618FB2DFF773F2E36FE0DC0232D2E7F94
S11311B0A22E891458F434FE0BC032FC09C0832DCE
S11311C08E7EA82E05C0B82CA32C03C0B82C01C059
S11311D0B92CA4FE0FC0FE01E80DF11D80818033FF
S11311E021F49A2D997EA92E09C0A2FE06C0B394BB
S11311F0B39404C08A2D867809F0B394A3FC11C07B
S1131200A0FE06C0B21488F4280C922C9B180EC0C1
S1131210B21460F4B60180E290E00E947809B394BD
S1131220F7CFB21418F42B1802C0982C212CA4FE6A
S113123010C0B60180E390E00E947809A2FE17C0B6
S1131240A1FC03C088E790E002C088E590E0B60105
S11312500CC08A2D867859F0A1FE02C08BE201C031
S113126080E2A7FC8DE2B60190E00E94780989141F
S113127038F4B60180E390E00E9478099A94F7CF9D
S11312808A94F301E80DF11D8081B60190E00E947B
S113129078098110F5CF222009F442CEB60180E20C
S11312A090E00E9478092A94F6CFF601868197810E
S11312B002C08FEF9FEF2B96E2E10C94720A9927FC
S11312C088270895FC010590615070400110D8F7FB
S11312D0809590958E0F9F1F0895FC01615070407A
S11312E001900110D8F7809590958E0F9F1F089557
S11312F00F931F93CF93DF93FB01238121FD03C041
S11313008FEF9FEF2CC022FF16C0468157812481A6
S113131035814217530744F4A081B1819D012F5FA9
S11313203F4F318320838C93268137812F5F3F4F3A
S11313303783268314C08B01EC01FB010084F18503
S1131340E02D0995892BE1F6D80116968D919C9193
S11313501797019617969C938E931697CE01DF915B
S1131360CF911F910F910895FA01AA27283051F1C6
S1131370203181F1E8946F936E7F6E5F7F4F8F4FC2
S11313809F4FAF4FB1E03ED0B4E03CD0670F781F21
S1131390891F9A1FA11D680F791F8A1F911DA11D06
S11313A06A0F711D811D911DA11D20D009F468943F
S11313B03F912AE0269F11243019305D3193DEF6E7
S11313C0CF010895462F4770405D4193B3E00FD09D
S11313D0C9F7F6CF462F4F70405D4A3318F0495D88
S11313E031FD4052419302D0A9F7EACFB4E0A6956B
S11313F09795879577956795BA95C9F7009761058D
S1131400710508959B01AC010A2E069457954795E2
S113141037952795BA95C9F7620F731F841F951FD7
S1131420A01D0895DC01CB01FC01F999FECF06C093
S1131430F2BDE1BDF89A319600B40D92415050408E
S1131440B8F70895A8E1B0E042E050E00C94140A23
S1131450262FF999FECF1FBA92BD81BD20BD0FB6CC
S1131460F894FA9AF99A0FBE019608950E94280AF0
S1131470272F0C94290ADB018F939F930E944B0A18
S1131480BF91AF91A29F800D911DA39F900DB29F1C
S1131490900D112408950E942A06A59F900DB49FD3
S11314A0900DA49F800D911D112408952F923F92B9
S11314B04F925F926F927F928F929F92AF92BF9260
S11314C0CF92DF92EF92FF920F931F93CF93DF930C
S11314D0CDB7DEB7CA1BDB0B0FB6F894DEBF0FBE69
S11314E0CDBF09942A88398848885F846E847D84B6
S11314F08C849B84AA84B984C884DF80EE80FD80B8
S11315000C811B81AA81B981CE0FD11D0FB6F8942D
S1111510DEBF0FBECDBFED010895F894FFCFEE
S113151E000000010000000000009F050000000014
S113152E000200000000A7050000000054686520BA
S113153E54696D657220496E74657272757074208B
S113154E56616C7565206973203A2025646D730AA3
S113155E00683470643031313132340025632069CF
S113156E73206E6F7420612076616C6964206368E9
S113157E617261637465722E20547970652066728F
S113158E6F6D20737461727420616761696E2021BE
S113159E212100546865206E65772054696D65724B
S11315AE20496E746572727570742056616C75651F
S11315BE206973203A2025646D730A00256C640A31
S11315CE00256400496E74203A20000100010008D1
S11315DE00020040000300000104000004050000A6
S9030000FC
